S00D000055534152542E7372656388
S11300000C9426010C9443010C9443010C94430179
S11300100C9443010C9443010C9443010C9443014C
S11300200C9443010C9443010C9443010C9443013C
S11300300C9443010C9443010C9443010C9443012C
S11300400C9443010C9443010C9443010C9443011C
S11300500C942B040C9443010C9443010C94430121
S11300600C9443010C9443010C9443010C944301FC
S1130070000000000000005F0000000700070014FB
S11300807F147F14242A7F2A1223130864623649BA
S11300905522500005030000001C224100004122AB
S11300A01C00082A1C2A0808083E080800503000D2
S11300B00008080808080060600000201008040216
S11300C03E5149453E00427F40004261514946212C
S11300D041454B311814127F1027454545393C4A98
S11300E049493001710905033649494936064949E8
S11300F0291E00363600000056360000000814227F
S11301004114141414144122140800020151090664
S1130110324979413E7E1111117E7F494949363E6B
S1130120414141227F4141221C7F494949417F0984
S11301300901013E414151327F0808087F00417F97
S113014041002040413F017F081422417F4040404C
S1130150407F0204027F7F0408107F3E4141413EFC
S11301607F090909063E4151215E7F091929464646
S11301704949493101017F01013F4040403F1F206F
S113018040201F7F2018207F631408146303047821
S11301900403615149454300007F414102040810B2
S11301A02041417F000004020102044040404040DD
S11301B0000102040020545454787F4844443838E1
S11301C044444420384444487F3854545418087EE6
S11301D0090102081454543C7F0804047800447D47
S11301E040002040443D00007F10284400417F40EF
S11301F0007C041804787C080404783844444438A7
S11302007C14141408081414187C7C08040408488A
S113021054545420043F4440203C4040207C1C2043
S113022040201C3C4030403C44281028440C505092
S1130230503C4464544C44000836410000007F00A4
S113024000004136080002010302010011241FBE10
S1130250CFEFD4E0DEBFCDBF11E0A0E0B1E0EEE52A
S1130260F2E102C005900D92AE3DB107D9F722E04C
S1130270AEEDB1E001C01D92AB30B207E1F70E94D0
S113028099010C942D090C9400001092001084EA3A
S11302908A95F1F70895282F90E080E003C08091BB
S11302A000109F5F2917D8F7089589E291E00E9412
S11302B0F1042FEF8FE797E0215080409040E1F761
S11302C000C000000E94450183E00E944B0182E0CF
S11302D00E944B0181E08093DE0108951F93CF9328
S11302E0DF9381E00E94050483E00E941F0481E4FF
S11302F08A95F1F700C080E00E941F04182F83E064
S11303008A95F1F7000080E00E941F04D82F83E053
S11303108A95F1F7000080E00E941F04C82F81E055
S11303200E941204612F7D2F8C2FDF91CF911F919A
S113033008950E94520468E874E08AE794E00E94F9
S1130340900490930402809303020E94F3030E949A
S11303505C0380E991E00E94F1040E9424040E945D
S113036055010E94F3030E945C030E94B30386E0DC
S113037091E00E942E02282F082E000C330B3F938D
S11303808F9388EA91E09F938F930E94DB040F90F0
S11303900F900F900F90FFCF0F931F93CF93DF9386
S11303A08C01D62F0E94B303C0E019C060E08C2FEB
S11303B00E943B03CD1303C089ED91E002C08BED95
S11303C091E00E94CB03EC2FF0E03196EE0FFF1F7B
S11303D0E00FF11F808191810E94CB03CF5FF80170
S11303E08289C81718F3DF91CF911F910F91089557
S11303F00E946E01882341F1262F30E024533109F5
S1130400872F90E0C497A901332324F44427552768
S1130410421B530BBC01992324F466277727681BDE
S1130420790B6417750744F4263031057CF42B3FAF
S11304303F4F74F080E00895863091055CF48B3F63
S11304409F4F54F080E0089585E0089584E0089576
S113045083E0089581E0089582E00895FF920F9368
S11304601F93CF93DF93CDB7DEB72C970FB6F894D5
S1130470DEBF0FBECDBF9A838983198660E00E94D8
S1130480CC0100E0F12C01C0012F0E94F801182FCB
S1130490882349F0081307C08FEF9FE50197F1F710
S11304A000C00000F1CF2F2D30E0F901EE0FFF1F47
S11304B041E050E04C0F5D1FE40FF51F80819181F6
S11304C0113031F5E9E0F0E0EC0FFD1FE20FF31F0E
S11304D0408141110BC0FC014289E9E0F0E0EC0FDE
S11304E0FD1FE20FF31F4150408308C0E9E0F0E034
S11304F0EC0FFD1FE20FF31F41504083E9E0F0E0F1
S1130500EC0FFD1FE20FF31F60810E94CC016DC050
S11305101230F1F4E9E0F0E0EC0FFD1FE20FF31FFD
S113052040814F5F4083FC015289451738F0E9E070
S1130530F0E0EC0FFD1FE20FF31F1082E9E0F0E0A2
S1130540EC0FFD1FE20FF31F60810E94CC014DC030
S1130550153089F5E9E0F0E0EC0FFD1FE20FF31F21
S11305604081242F30E0220F331FFC01E20FF31FE0
S1130570838994890097E1F0F2E0FF15C8F0F394C1
S11305802F2D30E0F901EE0FFF1F41E050E04C0F3A
S11305905D1FE40FF51F91838083E9E0F0E0EC0F29
S11305A0FD1FE20FF31F108260E00E94CC011DC00A
S11305B0892BD9F421C01330C1F4FF20B1F0FA948F
S11305C08F2D90E0A9E0B0E0AC0FBD1FA80FB91FBC
S11305D0880F991FE1E0F0E0EC0FFD1FE80FF91F11
S11305E06C91808191810E94CC018FEF9FE50197EE
S11305F0F1F700C0000048CF842F2C960FB6F89472
S1130600DEBF0FBECDBFDF91CF911F910F91FF9041
S11306100895CF93C82F82B38B7F82BB80E00E9462
S113062005048C2F0E941F0480E00E941204CF91C5
S11306300895CF93C82F82B3846082BB80E00E9468
S113064005048C2F0E941F0480E00E941204CF91A5
S113065008958770806B0E9409030895CF93C82F73
S11306608F700E9409038C2F82958F7080610E9485
S11306700903CF910895CF93C62F0E9429038C2F8D
S11306800E942E03CF91089582B3886082BB80E1DB
S11306908A95F1F700C082B3877F82BB90E19A9577
S11306A0F1F700C082B3886082BB8FEF9FE20197AD
S11306B0F1F700C00000089581B3846081BB81B369
S11306C0886081BB0E9444038EEA0E94090385ED81
S11306D00E94090380E80E94090388EA0E94090332
S11306E08FE30E94090383ED0E94090380E00E94C6
S11306F0090380E40E94090381EA0E94090388EC4B
S11307000E9409038AED0E94090382E10E94090301
S113071081E80E9409038FE70E94090389ED0E9482
S1130720090382E20E9409038BED0E94090384E31A
S11307300E94090384EA0E94090386EA0E940903CD
S113074080E20E94090382E00E9409032FEF8FE7F1
S113075091E0215080409040E1F700C000C08FEA52
S11307600E9409030895CF93DF93D0E00FC08D2F2B
S11307700E94290380E00E942E03C0E004C080E0B0
S11307800E941903CF5FCC23D4F7DF5FD83078F30E
S1130790DF91CF9108950F931F93CF93DF93EC01D3
S11307A01AC0005210E011C0802F90E0FC01EE0F3F
S11307B0FF1FEE0FFF1FE80FF91FE10FF11DE059B6
S11307C0FF4F84910E9419031F5F153068F380E086
S11307D00E941903219608810111E3CFDF91CF9183
S11307E01F910F91089587B3806A87BB87B3806197
S11307F087BB87B3816087BB88B3806188BB88B3BC
S1130800816088BB81E58DB90895882319F0813012
S113081029F0089588B38F7E88BB089588B38E7FAE
S113082088BB0895882319F0813029F0089588B38E
S1130830806188BB089588B3816088BB08958FB9AF
S1130840779BFECF8FB1089580B7806280BF85B754
S1130850806885BF08951F920F920FB60F921124DE
S11308602F938F939F93EF93FF9323B18091E00194
S11308708F5F803209F480E09091DF01891741F0A5
S1130880E091E001F0E0EF51FE4F20838093E0011E
S1130890FF91EF919F918F912F910F900FBE0F9029
S11308A01F9018951CBE8FE180B988E981B986E84C
S11308B08CBF78940895159BFECF83B90895209139
S11308C0E0019091DF0181E0291301C080E00895E7
S11308D0E091DF01F0E0EF51FE4F80819091DF0164
S11308E09F5F9093DF019091DF01903211F4109299
S11308F0DF010895CF93C82F8A3019F48DE00E9448
S11309005B048C2F0E945B0480E090E0CF910895FB
S11309100E945F048823E1F30E94680490E0089534
S11309200F931F93CF93DF93009731F461157105F3
S113093019F480E090E03AC08B01EC016EE070E0C5
S113094081E090E00E940207FC01892B91F380E88A
S113095083830115110571F01387028781E883836E
S11309608091010290910202892B21F4F0930202FA
S1130970E09301022097C9F0D187C0878381826008
S113098083838091030290910402892B71F4F09384
S11309900402E09303028091050290910602892BE0
S11309A021F4F0930602E0930502CF01DF91CF9189
S11309B01F910F910895A0E0B0E0E1EEF4E00C94F3
S11309C00609AE014B5F5F4FFA0161917191AF016E
S11309D080910302909104020E942105E2E00C94AC
S11309E022090F931F93CF93DF93E0910302F091B9
S11309F00402238121FF1BC08C01D0E0C0E0F80178
S1130A0081918F016091030270910402DB011896B9
S1130A10ED91FC911997882331F00995892B79F38D
S1130A20DFEFCFEFECCF8AE00995892B19F08FEF38
S1130A309FEF02C08D2F9C2FDF91CF911F910F91BB
S1130A400895ABE0B0E0E7E2F5E00C94F6086C0141
S1130A507B018A01FC0117821682838181FFCCC14C
S1130A60CE0101963C01F6019381F70193FD859136
S1130A7093FF81917F01882309F4BAC1853239F447
S1130A8093FD859193FF81917F01853229F4B6010D
S1130A9090E00E945C08E7CF912C212C312CFFE1DF
S1130AA0F315D8F08B3279F038F4803279F0833250
S1130AB0A1F4232D20611DC08D3261F0803369F4CF
S1130AC0232D216016C0832D8260382EE32DE4602F
S1130AD03E2E2AC0F32DF8601DC037FC2DC020ED3A
S1130AE0280F2A3040F08E32B9F436FC81C1232D10
S1130AF02064322E19C036FE06C08AE0989E200D6E
S1130B001124922E11C0EAE02E9E200D1124222ED3
S1130B10F32DF0623F2E08C08C3621F4832D8068BB
S1130B20382E02C0883641F4F70193FD859193FF76
S1130B3081917F018111B3CF982F9F7D955493307C
S1130B4028F40C5F1F4F9FE399830DC0833631F067
S1130B50833771F0833509F059C021C0F8018081D1
S1130B6089830E5F1F4F88248394912C530113C0F3
S1130B702801F2E04F0E511CF801A080B18036FE2E
S1130B8003C0692D70E002C06FEF7FEFC5010E94C2
S1130B9051084C018201F32DFF773F2E16C0280126
S1130BA022E0420E511CF801A080B18036FE03C041
S1130BB0692D70E002C06FEF7FEFC5010E943F080E
S1130BC04C01F32DF0683F2E820133FC1BC0822DB3
S1130BD090E088169906B0F4B60180E290E00E9495
S1130BE05C082A94F4CFF50137FC859137FE819196
S1130BF05F01B60190E00E945C0821102A9421E074
S1130C00821A91088114910471F7E8C0843611F0B6
S1130C10893641F5F80137FE07C060817181828110
S1130C2093810C5F1F4F08C060817181072E000CF7
S1130C30880B990B0E5F1F4FF32DFF763F2E97FF06
S1130C4009C090958095709561957F4F8F4F9F4F08
S1130C50F0683F2E2AE030E0A3010E949808882E15
S1130C60861845C0853731F4232D2F7EB22E2AE015
S1130C7030E025C0932D997FB92E8F36C1F018F43A
S1130C80883579F0B5C0803719F0883721F0B0C0C5
S1130C90E92FE061BE2EB4FE0DC0FB2DF460BF2E23
S1130CA009C034FE0AC0292F2660B22E06C028E0EF
S1130CB030E005C020E130E002C020E132E0F8017C
S1130CC0B7FE07C060817181828193810C5F1F4FE1
S1130CD006C06081718180E090E00E5F1F4FA30128
S1130CE00E949808882E8618FB2DFF773F2E36FE2B
S1130CF00DC0232D2E7FA22E891458F434FE0BC070
S1130D0032FC09C0832D8E7EA82E05C0B82CA32CDE
S1130D1003C0B82C01C0B92CA4FE0FC0FE01E80D1D
S1130D20F11D8081803321F49A2D997EA92E09C06A
S1130D30A2FE06C0B394B39404C08A2D867809F049
S1130D40B394A3FC11C0A0FE06C0B21488F4280C0E
S1130D50922C9B180EC0B21460F4B60180E290E0AD
S1130D600E945C08B394F7CFB21418F42B1802C095
S1130D70982C212CA4FE10C0B60180E390E00E94C0
S1130D805C08A2FE17C0A1FC03C088E790E002C083
S1130D9088E590E0B6010CC08A2D867859F0A1FE52
S1130DA002C08BE201C080E2A7FC8DE2B60190E0B4
S1130DB00E945C08891438F4B60180E390E00E9434
S1130DC05C089A94F7CF8A94F301E80DF11D8081B1
S1130DD0B60190E00E945C088110F5CF222009F44E
S1130DE042CEB60180E290E00E945C082A94F6CFDD
S1130DF0F6018681978102C08FEF9FEF2B96E2E187
S1130E000C9412090F931F93CF93DF93869F800155
S1130E10879F100D969F100D1124C8010E941E0774
S1130E20EC01009729F0A80160E070E00E944A08F4
S1130E30CE01DF91CF911F910F9108950F931F93CE
S1130E40CF93DF938230910510F482E090E0E0913B
S1130E500902F0910A0220E030E0A0E0B0E030970F
S1130E6019F1408151810281138148175907C8F053
S1130E708417950769F4109731F012960C93129722
S1130E8013961C9327C00093090210930A0222C0F0
S1130E902115310519F04217530718F49A01BD01C1
S1130EA0EF01DF01F801DBCF21153105F9F0281B33
S1130EB0390B2430310580F48A819B8161157105D9
S1130EC021F0FB019383828304C090930A028093F0
S1130ED00902FE01329644C0FE01E20FF31F819322
S1130EE0919322503109398328833AC02091070213
S1130EF030910802232B41F4209102013091030127
S1130F0030930802209307022091000130910101DF
S1130F102115310541F42DB73EB74091040150919C
S1130F200501241B350BE0910702F0910802E2173A
S1130F30F307A0F42E1B3F0B2817390778F0AC01F8
S1130F404E5F5F4F2417350748F04E0F5F1F5093D5
S1130F500802409307028193919302C0E0E0F0E01D
S1130F60CF01DF91CF911F910F910895CF93DF931C
S1130F70009709F481C0FC01329713821282A09178
S1130F800902B0910A02109781F420813181820F05
S1130F90931F20910702309108022817390751F551
S1130FA0F0930802E093070267C0ED0120E030E00F
S1130FB0CE17DF0740F44A815B819E01411551053C
S1130FC0F1F0EA01F5CFD383C28340815181840FCC
S1130FD0951FC817D90759F488819981840F951FE3
S1130FE00296918380838A819B81938382832115D6
S1130FF0310529F4F0930A02E09309023DC0E901A6
S1131000FB83EA8349915991C40FD51FEC17FD075F
S113101061F480819181840F951F0296E90199837F
S11310208883828193819B838A83E0E0F0E0129637
S11310308D919C911397009719F0FD01DC01F7CF76
S11310408D919C9111979D012E5F3F4F820F931FAD
S113105020910702309108022817390769F4309764
S113106029F410920A021092090202C01382128219
S1131070B0930802A0930702DF91CF910895FC0179
S11310800590615070400110D8F7809590958E0FAF
S11310909F1F0895DC0101C06D9341505040E0F75B
S11310A00895FC016150704001900110D8F78095BB
S11310B090958E0F9F1F08950F931F93CF93DF93E7
S11310C0FB01238121FD03C08FEF9FEF2CC022FF82
S11310D016C046815781248135814217530744F451
S11310E0A081B1819D012F5F3F4F318320838C9379
S11310F0268137812F5F3F4F3783268314C08B01AE
S1131100EC01FB010084F185E02D0995892BE1F6C2
S1131110D80116968D919C911797019617969C93DA
S11311208E931697CE01DF91CF911F910F91089561
S1131130FA01AA27283051F1203181F1E8946F9304
S11311406E7F6E5F7F4F8F4F9F4FAF4FB1E03ED0AA
S1131150B4E03CD0670F781F891F9A1FA11D680F48
S1131160791F8A1F911DA11D6A0F711D811D911D7B
S1131170A11D20D009F468943F912AE0269F1124F0
S11311803019305D3193DEF6CF010895462F477054
S1131190405D4193B3E00FD0C9F7F6CF462F4F70AF
S11311A0405D4A3318F0495D31FD4052419302D00D
S11311B0A9F7EACFB4E0A6959795879577956795B3
S11311C0BA95C9F700976105710508959B01AC01B3
S11311D00A2E06945795479537952795BA95C9F7DA
S11311E0620F731F841F951FA01D08952F923F92B5
S11311F04F925F926F927F928F929F92AF92BF9223
S1131200CF92DF92EF92FF920F931F93CF93DF93CE
S1131210CDB7DEB7CA1BDB0B0FB6F894DEBF0FBE2B
S1131220CDBF09942A88398848885F846E847D8478
S11312308C849B84AA84B984C884DF80EE80FD807A
S11312400C811B81AA81B981CE0FD11D0FB6F894F0
S1111250DEBF0FBECDBFED010895F894FFCFB1
S113125E00000B022000B601C001CB01D301000037
S113126E0000000000000000030000000000000069
S113127E00000000000000000043616C69627261AE
S113128E74696E67206A6F79737469636B202D2D90
S113129E206C656176652069742063656E74657271
S11312AE65642E2E2E005741524E494E4720434818
S11312BE45434B20594F55522043414C49425241CC
S11312CE54494F4E004C4546540052494748540029
S11312DE555000444F574E004E45555452414C0004
S11312EE48656C6C6F20322066726F6D2041546DB0
S11312FE656761313632210053656C6563746564CC
S113130E3A2025640A004D61696E204D656E7500A4
S113131E53746172742047616D65004F7074696F08
S111132E6E730041626F7574003E0020000073
S9030000FC
