:100000000C9426010C9443010C9443010C9443017D
:100010000C9443010C9443010C9443010C94430150
:100020000C9443010C9443010C9443010C94430140
:100030000C9443010C9443010C9443010C94430130
:100040000C9443010C9443010C9443010C94430120
:100050000C9422050C9443010C9443010C9443012D
:100060000C9443010C9443010C9443010C94430100
:10007000000000000000005F0000000700070014FF
:100080007F147F14242A7F2A1223130864623649BE
:100090005522500005030000001C224100004122AF
:1000A0001C00082A1C2A0808083E080800503000D6
:1000B000000808080808006060000020100804021A
:1000C0003E5149453E00427F400042615149462130
:1000D00041454B311814127F1027454545393C4A9C
:1000E00049493001710905033649494936064949EC
:1000F000291E003636000000563600000008142283
:100100004114141414144122140800020151090668
:10011000324979413E7E1111117E7F494949363E6F
:10012000414141227F4141221C7F494949417F0988
:100130000901013E414151327F0808087F00417F9B
:1001400041002040413F017F081422417F40404050
:10015000407F0204027F7F0408107F3E4141413E00
:100160007F090909063E4151215E7F09192946464A
:100170004949493101017F01013F4040403F1F2073
:1001800040201F7F2018207F631408146303047825
:100190000403615149454300007F414102040810B6
:1001A0002041417F000004020102044040404040E1
:1001B000000102040020545454787F4844443838E5
:1001C00044444420384444487F3854545418087EEA
:1001D000090102081454543C7F0804047800447D4B
:1001E00040002040443D00007F10284400417F40F3
:1001F000007C041804787C080404783844444438AB
:100200007C14141408081414187C7C08040408488E
:1002100054545420043F4440203C4040207C1C2047
:1002200040201C3C4030403C44281028440C505096
:10023000503C4464544C44000836410000007F00A8
:1002400000004136080002010302010011241FBE14
:10025000CFEFD4E0DEBFCDBF12E0A0E0B1E0ECE430
:10026000F4E102C005900D92A432B107D9F722E063
:10027000A4E2B2E001C01D92A335B207E1F70E94EB
:10028000DE010C94240A0C9400001092001084EA01
:100290008A95F1F70895282F90E080E003C08091BF
:1002A00000109F5F2917D8F708958AE591E00E9412
:1002B000E8052FEF8FE797E0215080409040E1F76D
:1002C00000C000000E94450183E00E944B0182E0D3
:1002D0000E944B0181E08093240208951F93CF93E5
:1002E000DF9381E00E94FC0483E00E94160581E414
:1002F0008A95F1F700C080E00E941605182F83E070
:100300008A95F1F7000080E00E941605D82F83E05F
:100310008A95F1F7000080E00E941605C82F81E061
:100320000E940905612F7D2F8C2FDF91CF911F91A6
:1003300008951F93CF93DF9381E00E94FC0484E033
:100340000E94160581E48A95F1F700C080E00E94C2
:100350001605182F83E08A95F1F7000080E00E94CF
:100360001605D82F83E08A95F1F7000080E00E94FF
:100370001605C82F81E00E940905612F7D2F8C2F63
:10038000DF91CF911F910895CF93DF93D82FC62F80
:1003900081E00E94FC0485E00E94160581E48A95B4
:1003A000F1F700C08D2F0E9416058C2F0E941605B4
:1003B00081E00E940905DF91CF9108950E944905CF
:1003C0006FE775E081E795E00E948705C9E4D2E018
:1003D0009B838A830E94EA040E94530481EC91E08B
:1003E0000E94E8050E941B050E9455010E94EA0434
:1003F0000E9453048CE491E09B838A830E94AA04A8
:1004000089E291E00E94B402282F082E000C330BE1
:100410003F938F9389ED91E09F938F930E94D20534
:100420000F900F900F900F9000E0D12C10E00E94E1
:100430009901D62FE72EF82EC0E014C081E090E09D
:100440000C2E02C0880F991F0A94E2F7212F2D2746
:10045000282339F08D2361E009F460E08C2F0E949D
:10046000C401CF5FC63050F361E0E11001C060E02D
:1004700081E0D11001C080E0681719F080E00E948F
:10048000C4010F2500FF05C06F2D617085E00E943B
:10049000C4011D2F80E090EF0197F1F70F2DDE2CA6
:1004A000C6CF0F931F93CF93DF938C01D62F0E945B
:1004B000AA04C0E019C060E08C2F0E943204CD1362
:1004C00003C080E292E002C082E292E00E94C20495
:1004D000EC2FF0E03196EE0FFF1FE00FF11F80814F
:1004E00091810E94C204CF5FF8018289C81718F376
:1004F000DF91CF911F910F9108950E946E0181307D
:1005000049F1262F30E02E573109872F90E08E5782
:100510009109A901332324F444275527421B530B87
:10052000BC01992324F466277727681B790B64178D
:10053000750744F4293231057CF4283D3F4F74F0AF
:1005400080E00895893291055CF4883D9F4F54F016
:1005500080E0089585E0089584E0089583E008959B
:1005600081E0089582E00895FF920F931F93CF9347
:10057000DF93CDB7DEB768970FB6F894DEBF0FBE36
:10058000CDBF9A838983198A60E00E94510200E0FE
:10059000F12C01C0012F0E947D02182F882349F001
:1005A000081307C08FEF9FE50197F1F700C0000027
:1005B000F1CF2F2D30E0F901EE0FFF1F41E050E0A9
:1005C0004C0F5D1FE40FF51F80819181113031F5D3
:1005D000E1E1F0E0EC0FFD1FE20FF31F408141115C
:1005E0000BC0FC014289E1E1F0E0EC0FFD1FE20FDE
:1005F000F31F4150408308C0E1E1F0E0EC0FFD1F24
:10060000E20FF31F41504083E1E1F0E0EC0FFD1FEA
:10061000E20FF31F60810E9451028BC01230F1F48F
:10062000E1E1F0E0EC0FFD1FE20FF31F40814F5FAF
:100630004083FC015289451738F0E1E1F0E0EC0F0E
:10064000FD1FE20FF31F1082E1E1F0E0EC0FFD1F50
:10065000E20FF31F60810E9451026BC0153009F058
:100660004EC0E1E1F0E0EC0FFD1FE20FF31F40810F
:10067000242F30E0220F331FFC01E20FF31F838988
:10068000948981309105D1F4FF2009F452C0FA9485
:100690008F2D90E0A1E1B0E0AC0FBD1FA80FB91FF6
:1006A000880F991FE1E0F0E0EC0FFD1FE80FF91F44
:1006B0006C91808191810E9451023BC00097E1F0D2
:1006C000F6E0FF15C8F0F3942F2D30E0F901EE0F9E
:1006D000FF1F41E050E04C0F5D1FE40FF51F9183B9
:1006E0008083E1E1F0E0EC0FFD1FE20FF31F1082C9
:1006F00060E00E9451021DC0892BD9F421C0133043
:10070000C1F4FF20B1F0FA948F2D90E0A1E1B0E0A8
:10071000AC0FBD1FA80FB91F880F991FE1E0F0E0D3
:10072000EC0FFD1FE80FF91F6C91808191810E94F1
:1007300051028FEF9FE50197F1F700C000002ACF2B
:10074000842F68960FB6F894DEBF0FBECDBFDF9141
:10075000CF911F910F91FF900895CF93C82F82B32F
:100760008B7F82BB80E00E94FC048C2F0E941605C8
:1007700080E00E940905CF910895CF93C82F82B3DE
:10078000846082BB80E00E94FC048C2F0E941605CE
:1007900080E00E940905CF9108958770806B0E94C8
:1007A000AD030895CF93C82F8F700E94AD038C2F97
:1007B00082958F7080610E94AD03CF910895CF9391
:1007C000DF938A3089F48091260290E00196877049
:1007D0009078992324F40197886F9F6F01968093F6
:1007E00026021092250239C0D82F809126020E943D
:1007F000CD03809125020E94D203D052C0E011C0E7
:100800002D2F30E0F901EE0FFF1FEE0FFF1FE20F5B
:10081000F31FEC0FF11DE059FF4F84910E94BD03BF
:10082000CF5FC53068F380E00E94BD038091250250
:100830008A5F80932502882384F410922502809198
:10084000260290E0019687709078992324F401970E
:10085000886F9F6F01968093260280E090E0DF9181
:10086000CF910895CF93C62F0E94CD038C2F0E9465
:10087000D203CF91089582B3886082BB80E18A95CC
:10088000F1F700C082B3877F82BB90E19A95F1F7C0
:1008900000C082B3886082BB8FEF9FE20197F1F7BF
:1008A00000C00000089581B3846081BB81B388607B
:1008B00081BB0E943B048EEA0E94AD0385ED0E943D
:1008C000AD0380E80E94AD0388EA0E94AD038FE388
:1008D0000E94AD0383ED0E94AD0380E00E94AD0352
:1008E00080E40E94AD0381EA0E94AD0388EC0E947F
:1008F000AD038AED0E94AD0382E10E94AD0381E861
:100900000E94AD038FE70E94AD0389ED0E94AD0305
:1009100082E20E94AD038BED0E94AD0384E30E944E
:10092000AD0384EA0E94AD0386EA0E94AD0380E233
:100930000E94AD0382E00E94AD032FEF8FE791E0AC
:10094000215080409040E1F700C000C08FEA0E9433
:10095000AD030895CF93DF93D0E00FC08D2F0E9499
:10096000CD0380E00E94D203C0E004C080E00E947A
:10097000BD03CF5FCC23D4F7DF5FD83078F3DF91AE
:10098000CF9108950F931F93CF93DF93EC011AC07B
:10099000005210E011C0802F90E0FC01EE0FFF1F0D
:1009A000EE0FFF1FE80FF91FE10FF11DE059FF4F98
:1009B00084910E94BD031F5F153068F380E00E94A0
:1009C000BD03219608810111E3CFDF91CF911F91E3
:1009D0000F91089587B3806A87BB87B3806187BB17
:1009E00087B3816087BB88B3806188BB88B381602F
:1009F00088BB81E58DB90895882319F0813029F0ED
:100A0000089588B38F7E88BB089588B38E7F88BB96
:100A10000895882319F0813029F0089588B3806102
:100A200088BB089588B3816088BB08958FB9779B90
:100A3000FECF8FB1089580B7806280BF85B7806890
:100A400085BF08951F920F920FB60F9211242F9316
:100A50008F939F93EF93FF9323B1809128028F5F31
:100A6000803209F480E090912702891741F0E091EB
:100A70002802F0E0E75DFD4F208380932802FF917C
:100A8000EF919F918F912F910F900FBE0F901F901C
:100A900018951CBE8FE180B988E981B986E88CBFC2
:100AA00078940895159BFECF83B90895209128026C
:100AB0009091270281E0291301C080E00895E09120
:100AC0002702F0E0E75DFD4F8081909127029F5F54
:100AD0009093270290912702903211F410922702EE
:100AE0000895CF93C82F8A3019F48DE00E945205E3
:100AF0008C2F0E94520580E090E0CF9108950E94D3
:100B000056058823E1F30E945F0590E008950F9356
:100B10001F93CF93DF93009731F46115710519F49A
:100B200080E090E03AC08B01EC016EE070E081E083
:100B300090E00E94F907FC01892B91F380E8838300
:100B40000115110571F01387028781E88383809175
:100B5000490290914A02892B21F4F0934A02E093D2
:100B600049022097C9F0D187C0878381826083833F
:100B700080914B0290914C02892B71F4F0934C02BE
:100B8000E0934B0280914D0290914E02892B21F40B
:100B9000F0934E02E0934D02CF01DF91CF911F9170
:100BA0000F910895A0E0B0E0E8EDF5E00C94FD09A8
:100BB000AE014B5F5F4FFA0161917191AF0180917E
:100BC0004B0290914C020E941806E2E00C94190A24
:100BD0000F931F93CF93DF93E0914B02F0914C0260
:100BE000238121FF1BC08C01D0E0C0E0F80181917E
:100BF0008F0160914B0270914C02DB011896ED91D0
:100C0000FC911997882331F00995892B79F3DFEF4F
:100C1000CFEFECCF8AE00995892B19F08FEF9FEF8A
:100C200002C08D2F9C2FDF91CF911F910F910895BE
:100C3000ABE0B0E0EEE1F6E00C94ED096C017B0175
:100C40008A01FC0117821682838181FFCCC1CE010B
:100C500001963C01F6019381F70193FD859193FF85
:100C600081917F01882309F4BAC1853239F493FD5B
:100C7000859193FF81917F01853229F4B60190E03F
:100C80000E945309E7CF912C212C312CFFE1F31561
:100C9000D8F08B3279F038F4803279F08332A1F4D5
:100CA000232D20611DC08D3261F0803369F4232D26
:100CB000216016C0832D8260382EE32DE4603E2E25
:100CC0002AC0F32DF8601DC037FC2DC020ED280F81
:100CD0002A3040F08E32B9F436FC81C1232D2064D5
:100CE000322E19C036FE06C08AE0989E200D1124CF
:100CF000922E11C0EAE02E9E200D1124222EF32DFB
:100D0000F0623F2E08C08C3621F4832D8068382E87
:100D100002C0883641F4F70193FD859193FF8191DC
:100D20007F018111B3CF982F9F7D9554933028F484
:100D30000C5F1F4F9FE399830DC0833631F08337DB
:100D400071F0833509F059C021C0F8018081898391
:100D50000E5F1F4F88248394912C530113C02801E8
:100D6000F2E04F0E511CF801A080B18036FE03C0A6
:100D7000692D70E002C06FEF7FEFC5010E94480946
:100D80004C018201F32DFF773F2E16C0280122E08F
:100D9000420E511CF801A080B18036FE03C0692DBF
:100DA00070E002C06FEF7FEFC5010E9436094C0171
:100DB000F32DF0683F2E820133FC1BC0822D90E0A2
:100DC00088169906B0F4B60180E290E00E945309BB
:100DD0002A94F4CFF50137FC859137FE81915F01AC
:100DE000B60190E00E94530921102A9421E0821A52
:100DF00091088114910471F7E8C0843611F08936A6
:100E000041F5F80137FE07C06081718182819381CD
:100E10000C5F1F4F08C060817181072E000C880B8A
:100E2000990B0E5F1F4FF32DFF763F2E97FF09C0E2
:100E300090958095709561957F4F8F4F9F4FF0688B
:100E40003F2E2AE030E0A3010E948F09882E8618E9
:100E500045C0853731F4232D2F7EB22E2AE030E0B5
:100E600025C0932D997FB92E8F36C1F018F488359F
:100E700079F0B5C0803719F0883721F0B0C0E92F7C
:100E8000E061BE2EB4FE0DC0FB2DF460BF2E09C084
:100E900034FE0AC0292F2660B22E06C028E030E0BA
:100EA00005C020E130E002C020E132E0F801B7FEE9
:100EB00007C060817181828193810C5F1F4F06C0E2
:100EC0006081718180E090E00E5F1F4FA3010E945E
:100ED0008F09882E8618FB2DFF773F2E36FE0DC01A
:100EE000232D2E7FA22E891458F434FE0BC032FC21
:100EF00009C0832D8E7EA82E05C0B82CA32C03C05C
:100F0000B82C01C0B92CA4FE0FC0FE01E80DF11DE4
:100F10008081803321F49A2D997EA92E09C0A2FEEA
:100F200006C0B394B39404C08A2D867809F0B394B4
:100F3000A3FC11C0A0FE06C0B21488F4280C922CA9
:100F40009B180EC0B21460F4B60180E290E00E94DB
:100F50005309B394F7CFB21418F42B1802C0982C8D
:100F6000212CA4FE10C0B60180E390E00E9453093A
:100F7000A2FE17C0A1FC03C088E790E002C088E58C
:100F800090E0B6010CC08A2D867859F0A1FE02C00F
:100F90008BE201C080E2A7FC8DE2B60190E00E94E6
:100FA0005309891438F4B60180E390E00E94530994
:100FB0009A94F7CF8A94F301E80DF11D8081B60170
:100FC00090E00E9453098110F5CF222009F442CE0F
:100FD000B60180E290E00E9453092A94F6CFF60110
:100FE0008681978102C08FEF9FEF2B96E2E10C94F0
:100FF000090A0F931F93CF93DF93869F8001879FEA
:10100000100D969F100D1124C8010E941508EC01C7
:10101000009729F0A80160E070E00E944109CE012C
:10102000DF91CF911F910F9108950F931F93CF934D
:10103000DF938230910510F482E090E0E09151025C
:10104000F091520220E030E0A0E0B0E0309719F1DA
:10105000408151810281138148175907C8F08417D4
:10106000950769F4109731F012960C931297139626
:101070001C9327C0009351021093520222C02115E5
:10108000310519F04217530718F49A01BD01EF0119
:10109000DF01F801DBCF21153105F9F0281B390BF1
:1010A0002430310580F48A819B816115710521F01E
:1010B000FB019383828304C0909352028093510278
:1010C000FE01329644C0FE01E20FF31F819391931B
:1010D00022503109398328833AC020914F02309140
:1010E0005002232B41F420910201309103013093EF
:1010F000500220934F0220910001309101012115EF
:10110000310541F42DB73EB74091040150910501DE
:10111000241B350BE0914F02F0915002E217F307C8
:10112000A0F42E1B3F0B2817390778F0AC014E5F57
:101130005F4F2417350748F04E0F5F1F5093500242
:1011400040934F028193919302C0E0E0F0E0CF0121
:10115000DF91CF911F910F910895CF93DF93009767
:1011600009F481C0FC01329713821282A0915102CE
:10117000B0915202109781F420813181820F931F28
:1011800020914F02309150022817390751F5F09302
:101190005002E0934F0267C0ED0120E030E0CE172F
:1011A000DF0740F44A815B819E0141155105F1F052
:1011B000EA01F5CFD383C28340815181840F951F0B
:1011C000C817D90759F488819981840F951F029611
:1011D000918380838A819B8193838283211531054A
:1011E00029F4F0935202E09351023DC0E901FB83E0
:1011F000EA8349915991C40FD51FEC17FD0761F49B
:1012000080819181840F951F0296E90199838883DB
:10121000828193819B838A83E0E0F0E012968D9136
:101220009C911397009719F0FD01DC01F7CF8D9188
:101230009C9111979D012E5F3F4F820F931F20912C
:101240004F02309150022817390769F4309729F47A
:10125000109252021092510202C013821282B09375
:101260005002A0934F02DF91CF910895FC010590A9
:10127000615070400110D8F7809590958E0F9F1F98
:101280000895DC0101C06D9341505040E0F708958E
:10129000FC016150704001900110D8F78095909545
:1012A0008E0F9F1F08950F931F93CF93DF93FB0122
:1012B000238121FD03C08FEF9FEF2CC022FF16C0BA
:1012C00046815781248135814217530744F4A08118
:1012D000B1819D012F5F3F4F318320838C93268105
:1012E00037812F5F3F4F3783268314C08B01EC017A
:1012F000FB010084F185E02D0995892BE1F6D801E9
:1013000016968D919C911797019617969C938E93A4
:101310001697CE01DF91CF911F910F910895FA0199
:10132000AA27283051F1203181F1E8946F936E7F24
:101330006E5F7F4F8F4F9F4FAF4FB1E03ED0B4E015
:101340003CD0670F781F891F9A1FA11D680F791F56
:101350008A1F911DA11D6A0F711D811D911DA11D67
:1013600020D009F468943F912AE0269F1124301977
:10137000305D3193DEF6CF010895462F4770405D12
:101380004193B3E00FD0C9F7F6CF462F4F70405DC1
:101390004A3318F0495D31FD4052419302D0A9F71C
:1013A000EACFB4E0A6959795879577956795BA9516
:1013B000C9F700976105710508959B01AC010A2EDC
:1013C00006945795479537952795BA95C9F7620FB3
:1013D000731F841F951FA01D08952F923F924F9257
:1013E0005F926F927F928F929F92AF92BF92CF92B5
:1013F000DF92EF92FF920F931F93CF93DF93CDB7BE
:10140000DEB7CA1BDB0B0FB6F894DEBF0FBECDBF35
:1014100009942A88398848885F846E847D848C8406
:101420009B84AA84B984C884DF80EE80FD800C810F
:101430001B81AA81B981CE0FD11D0FB6F894DEBFF2
:0C1440000FBECDBFED010895F894FFCF62
:10144C00000053022000E701EF01FA010002000046
:10145C00000000000000000003000000000100007C
:10146C0000000000000000000005020F02E7011A56
:10147C000200000000000000000000030000060154
:10148C00000000000000000000000000000000024E
:10149C0000000000DF030000000043616C69627211
:1014AC006174696E67206A6F79737469636B202D40
:1014BC002D206C656176652069742063656E74659A
:1014CC007265642E2E2E005741524E494E472043D2
:1014DC004845434B20594F55522043414C494252A9
:1014EC004154494F4E004C454654005249474854CC
:1014FC0000555000444F574E004E45555452414CE8
:10150C000048656C6C6F20322066726F6D20415400
:10151C006D656761313632210053656C65637465A6
:10152C00643A2025640A004F7074696F6E73004230
:10153C0072696768746E65737300536F756E6400BF
:10154C004261636B004D61696E204D656E75005391
:10155C00746172742047616D650041626F7574002F
:04156C003E0020001D
:00000001FF
