S00D000055534152542E7372656388
S11300000C9438000C9455000C9455000C94550035
S11300100C9455000C9455000C9455000C94550008
S11300200C9455000C9455000C9455000C945500F8
S11300300C9455000C9455000C9455000C945500E8
S11300400C9455000C9455000C9455000C945500D8
S11300500C9437010C9455000C9455000C945500E5
S11300600C9455000C9455000C9455000C945500B8
S113007011241FBECFEFD4E0DEBFCDBF11E0A0E05E
S1130080B1E0E6ECFCE002C005900D92A23DB107A0
S1130090D9F722E0A2EDB1E001C01D92A030B20771
S11300A0E1F70E941B010C9461060C94000081B3DB
S11300B0806281BB8FB580648FBD8EB588608EBD34
S11300C08EB581608EBD81E090E09BBD8ABD0895B0
S11300D01092001084EA8A95F1F70895282F90E091
S11300E080E003C0809100109F5F2917D8F708951E
S11300F086E091E00E9425022FEF8FE797E02150E0
S113010080409040E1F700C000000E94680083E056
S11301100E946E008093D30182E00E946E0091E001
S11301209093D2011F928F938091D3011F928F934A
S113013083E391E09F938F930E940F020F900F909F
S11301400F900F900F900F900895282F30E0E62F16
S1130150F0E02E1B3F0B54E6529FC001539F900DBD
S11301601124642F70E06E1B7F0B0E949C01862F6C
S113017008950F931F93CF93DF938091D201811140
S113018008C08EE591E09F938F930E940F020F9019
S11301900F900E94680083E00E946E00082F82E0A6
S11301A00E946E00182F80E00E946E00D82F81E01C
S11301B00E946E00C82F41EF65E4802F0E94A500C5
S11301C0082F42EF63E4812F0E94A500182F41EF0E
S11301D065E48D2F0E94A500D82F41EF65E48C2F94
S11301E00E94A500C82F1F928F931F92DF931F9226
S11301F01F931F920F938DE791E09F938F930E941B
S11302000F022FEF8FE797E0215080409040E1F7F5
S113021000C000008DB79EB70A960FB6F8949EBF33
S11302200FBE8DBF602F712F8D2F9C2FDF91CF912B
S11302301F910F9108950E945E0164E971E086E8C0
S113024091E00E94C40189EB91E00E9425020E9482
S113025030010E9457000E9478000E94B900FDCF2F
S113026080B7806280BF85B7806885BF08951F927C
S11302700F920FB60F9211242F938F939F93EF93A6
S1130280FF9323B18091D5018F5F803209F480E020
S11302909091D401891741F0E091D501F0E0EA5240
S11302A0FE4F20838093D501FF91EF919F918F9111
S11302B02F910F900FBE0F901F9018951CBE8FE1C9
S11302C080B988E981B986E88CBF78940895159B34
S11302D0FECF83B908952091D5019091D40181E096
S11302E0291301C080E00895E091D401F0E0EA52BE
S11302F0FE4F80819091D4019F5F9093D40190919F
S1130300D401903211F41092D4010895CF93C82FE0
S11303108A3019F48DE00E9467018C2F0E946701D6
S113032080E090E0CF9108950E946B018823E1F36F
S11303300E94740190E0089597FB072E16F4009430
S113034007D077FD09D00E94B00107FC05D03EF428
S1130350909581959F4F0895709561957F4F08956D
S1130360AA1BBB1B51E107C0AA1FBB1FA617B707D7
S113037010F0A61BB70B881F991F5A95A9F78095F3
S11303809095BC01CD0108950F931F93CF93DF93F4
S1130390009731F46115710519F480E090E03AC0DA
S11303A08B01EC016EE070E081E090E00E94360485
S11303B0FC01892B91F380E883830115110571F009
S11303C01387028781E883838091F6019091F70176
S11303D0892B21F4F093F701E093F6012097C9F0FB
S11303E0D187C0878381826083838091F801909153
S11303F0F901892B71F4F093F901E093F8018091EC
S1130400FA019091FB01892B21F4F093FB01E09315
S1130410FA01CF01DF91CF911F910F910895A0E0D0
S1130420B0E0E5E1F2E00C943A06AE014B5F5F4FB9
S1130430FA0161917191AF018091F8019091F901F4
S11304400E945502E2E00C9456060F931F93CF933B
S1130450DF93E091F801F091F901238121FF1BC0A2
S11304608C01D0E0C0E0F80181918F016091F80126
S11304707091F901DB011896ED91FC91199788238D
S113048031F00995892B79F3DFEFCFEFECCF8AE0D8
S11304900995892B19F08FEF9FEF02C08D2F9C2FA8
S11304A0DF91CF911F910F910895ABE0B0E0EBE5A0
S11304B0F2E00C942A066C017B018A01FC0117828C
S11304C01682838181FFCCC1CE0101963C01F601E5
S11304D09381F70193FD859193FF81917F01882397
S11304E009F4BAC1853239F493FD859193FF819162
S11304F07F01853229F4B60190E00E949005E7CF90
S1130500912C212C312CFFE1F315D8F08B3279F0AA
S113051038F4803279F08332A1F4232D20611DC098
S11305208D3261F0803369F4232D216016C0832D50
S11305308260382EE32DE4603E2E2AC0F32DF8604D
S11305401DC037FC2DC020ED280F2A3040F08E321C
S1130550B9F436FC81C1232D2064322E19C036FE35
S113056006C08AE0989E200D1124922E11C0EAE064
S11305702E9E200D1124222EF32DF0623F2E08C052
S11305808C3621F4832D8068382E02C0883641F4DD
S1130590F70193FD859193FF81917F018111B3CF81
S11305A0982F9F7D9554933028F40C5F1F4F9FE341
S11305B099830DC0833631F0833771F0833509F0A8
S11305C059C021C0F801808189830E5F1F4F8824A0
S11305D08394912C530113C02801F2E04F0E511C57
S11305E0F801A080B18036FE03C0692D70E002C01E
S11305F06FEF7FEFC5010E9485054C018201F32D49
S1130600FF773F2E16C0280122E0420E511CF8014C
S1130610A080B18036FE03C0692D70E002C06FEF88
S11306207FEFC5010E9473054C01F32DF0683F2E46
S1130630820133FC1BC0822D90E088169906B0F429
S1130640B60180E290E00E9490052A94F4CFF5016F
S113065037FC859137FE81915F01B60190E00E94DD
S1130660900521102A9421E0821A910881149104A2
S113067071F7E8C0843611F0893641F5F80137FE88
S113068007C060817181828193810C5F1F4F08C014
S113069060817181072E000C880B990B0E5F1F4F30
S11306A0F32DFF763F2E97FF09C0909580957095A6
S11306B061957F4F8F4F9F4FF0683F2E2AE030E0C7
S11306C0A3010E94CC05882E861845C0853731F4D5
S11306D0232D2F7EB22E2AE030E025C0932D997F62
S11306E0B92E8F36C1F018F4883579F0B5C080374B
S11306F019F0883721F0B0C0E92FE061BE2EB4FEB6
S11307000DC0FB2DF460BF2E09C034FE0AC0292F92
S11307102660B22E06C028E030E005C020E130E0BB
S113072002C020E132E0F801B7FE07C060817181A8
S1130730828193810C5F1F4F06C06081718180E0CC
S113074090E00E5F1F4FA3010E94CC05882E8618EF
S1130750FB2DFF773F2E36FE0DC0232D2E7FA22EBC
S1130760891458F434FE0BC032FC09C0832D8E7EEC
S1130770A82E05C0B82CA32C03C0B82C01C0B92CDA
S1130780A4FE0FC0FE01E80DF11D8081803321F429
S11307909A2D997EA92E09C0A2FE06C0B394B394E3
S11307A004C08A2D867809F0B394A3FC11C0A0FE7E
S11307B006C0B21488F4280C922C9B180EC0B214F4
S11307C060F4B60180E290E00E949005B394F7CF04
S11307D0B21418F42B1802C0982C212CA4FE10C0BB
S11307E0B60180E390E00E949005A2FE17C0A1FC30
S11307F003C088E790E002C088E590E0B6010CC031
S11308008A2D867859F0A1FE02C08BE201C080E2F5
S1130810A7FC8DE2B60190E00E949005891438F49B
S1130820B60180E390E00E9490059A94F7CF8A94F1
S1130830F301E80DF11D8081B60190E00E9490055E
S11308408110F5CF222009F442CEB60180E290E077
S11308500E9490052A94F6CFF6018681978102C002
S11308608FEF9FEF2B96E2E10C9446060F931F93B4
S1130870CF93DF93869F8001879F100D969F100D65
S11308801124C8010E945204EC01009729F0A80128
S113089060E070E00E947E05CE01DF91CF911F9150
S11308A00F9108950F931F93CF93DF938230910597
S11308B010F482E090E0E091FE01F091FF0120E06D
S11308C030E0A0E0B0E0309719F14081518102811D
S11308D0138148175907C8F08417950769F41097CE
S11308E031F012960C93129713961C9327C0009321
S11308F0FE011093FF0122C02115310519F04217A2
S1130900530718F49A01BD01EF01DF01F801DBCFB1
S113091021153105F9F0281B390B2430310580F4F9
S11309208A819B816115710521F0FB019383828388
S113093004C09093FF018093FE01FE01329644C0EF
S1130940FE01E20FF31F8193919322503109398301
S113095028833AC02091FC013091FD01232B41F4FE
S113096020910201309103013093FD012093FC0199
S113097020910001309101012115310541F42DB779
S11309803EB74091040150910501241B350BE091C1
S1130990FC01F091FD01E217F307A0F42E1B3F0BBD
S11309A02817390778F0AC014E5F5F4F24173507DD
S11309B048F04E0F5F1F5093FD014093FC0181935B
S11309C0919302C0E0E0F0E0CF01DF91CF911F915D
S11309D00F910895CF93DF93009709F481C0FC0130
S11309E0329713821282A091FE01B091FF011097F9
S11309F081F420813181820F931F2091FC01309179
S1130A00FD012817390751F5F093FD01E093FC012E
S1130A1067C0ED0120E030E0CE17DF0740F44A81E3
S1130A205B819E0141155105F1F0EA01F5CFD383B5
S1130A30C28340815181840F951FC817D90759F487
S1130A4088819981840F951F0296918380838A817E
S1130A509B81938382832115310529F4F093FF014F
S1130A60E093FE013DC0E901FB83EA83499159917A
S1130A70C40FD51FEC17FD0761F480819181840FA9
S1130A80951F0296E90199838883828193819B83D0
S1130A908A83E0E0F0E012968D919C911397009781
S1130AA019F0FD01DC01F7CF8D919C9111979D0107
S1130AB02E5F3F4F820F931F2091FC013091FD0167
S1130AC02817390769F4309729F41092FF0110921E
S1130AD0FE0102C013821282B093FD01A093FC01B7
S1130AE0DF91CF910895FC01059061507040011091
S1130AF0D8F7809590958E0F9F1F0895DC0101C053
S1130B006D9341505040E0F70895FC0161507040EE
S1130B1001900110D8F7809590958E0F9F1F08952E
S1130B200F931F93CF93DF93FB01238121FD03C018
S1130B308FEF9FEF2CC022FF16C04681578124817E
S1130B4035814217530744F4A081B1819D012F5F81
S1130B503F4F318320838C93268137812F5F3F4F12
S1130B603783268314C08B01EC01FB010084F185DB
S1130B70E02D0995892BE1F6D80116968D919C916B
S1130B801797019617969C938E931697CE01DF9133
S1130B90CF911F910F910895FA01AA27283051F19E
S1130BA0203181F1E8946F936E7F6E5F7F4F8F4F9A
S1130BB09F4FAF4FB1E03ED0B4E03CD0670F781FF9
S1130BC0891F9A1FA11D680F791F8A1F911DA11DDE
S1130BD06A0F711D811D911DA11D20D009F4689417
S1130BE03F912AE0269F11243019305D3193DEF6BF
S1130BF0CF010895462F4770405D4193B3E00FD075
S1130C00C9F7F6CF462F4F70405D4A3318F0495D5F
S1130C1031FD4052419302D0A9F7EACFB4E0A69542
S1130C209795879577956795BA95C9F70097610564
S1130C30710508959B01AC010A2E069457954795BA
S1130C4037952795BA95C9F7620F731F841F951FAF
S1130C50A01D08952F923F924F925F926F927F92C0
S1130C608F929F92AF92BF92CF92DF92EF92FF92B8
S1130C700F931F93CF93DF93CDB7DEB7CA1BDB0B64
S1130C800FB6F894DEBF0FBECDBF09942A88398809
S1130C9048885F846E847D848C849B84AA84B98410
S1130CA0C884DF80EE80FD800C811B81AA81B9811C
S1130CB0CE0FD11D0FB6F894DEBF0FBECDBFED0130
S1090CC00895F894FFCF33
S1130CC600000002200043616C6962726174696EFF
S1130CD667206A6F79737469636B202D2D206C65A8
S1130CE66176652069742063656E74657265642E29
S1130CF62E2E0043616C6962726174696F6E2064A2
S1130D066F6E653A2063656E7465725F783D25641F
S1130D162063656E7465725F793D25640A005741E8
S1130D26524E494E4720434845434B20594F55524E
S1130D362043414C4942524154494F4E00207C7C49
S1130D46207065725F78202532647C7C2070657221
S1130D565F79202532647C7C207065725F706164E3
S1130D665F78202564207C7C207065725F706164E6
S1130D765F79202564200D0A0048656C6C6F20326B
S1130D862066726F6D2041546D656761313632217C
S1050D96000057
S9030000FC
