:100000000C9438000C9455000C9455000C94550039
:100010000C9455000C9455000C9455000C9455000C
:100020000C9455000C9455000C9455000C945500FC
:100030000C9455000C9455000C9455000C945500EC
:100040000C9455000C9455000C9455000C945500DC
:100050000C94D3000C9455000C9455000C9455004E
:100060000C9455000C9455000C9455000C945500BC
:1000700011241FBECFEFD4E0DEBFCDBF11E0A0E062
:10008000B1E0ECEBFBE002C005900D92A03AB107A5
:10009000D9F721E0A0EAB1E001C01D92AC3CB20763
:1000A000E1F70E94B2000C94DC050C94000080E1A2
:1000B0008F931F9286E091E09F938F930E9483011C
:1000C0008AEA809300102FEF8FEF9EE0215080404E
:1000D0009040E1F700C0000084E18F931F9284E21A
:1000E00091E09F938F930E948301C5E5C093001414
:1000F0002FEF8FEF9EE0215080409040E1F700C04D
:10010000000088E18F931F9283E491E09F938F9387
:100110000E948301C09300182FEF8FEF9EE02150C3
:1001200080409040E1F700C000008CE18F931F9267
:1001300085E691E09F938F930E948301C093001CFA
:100140002FEF8FEF9EE0215080409040E1F700C0FC
:1001500000008DB79EB740960FB6F8949EBF0FBEB5
:100160008DBFA5CF0E94FA0060E371E082E291E0CA
:100170000E94380187E891E00E94A0010E94CC0013
:100180000E9457000E9407018823E1F30E9410019A
:1001900090E00E949901F6CF80B7806280BF85B75A
:1001A000806885BF08951F920F920FB60F92112499
:1001B0002F938F939F93EF93FF9323B18091A1018E
:1001C0008F5F803209F480E09091A001891741F09F
:1001D000E091A101F0E0EE55FE4F20838093A10154
:1001E000FF91EF919F918F912F910F900FBE0F90E4
:1001F0001F9018951CBE8FE180B988E981B986E807
:100200008CBF78940895159BFECF83B908952091F3
:10021000A1019091A00181E0291301C080E008951F
:10022000E091A001F0E0EE55FE4F80819091A00199
:100230009F5F9093A0019091A001903211F41092D1
:10024000A0010895CF93C82F8A3019F48DE00E9441
:1002500003018C2F0E94030180E090E0CF9108956C
:100260000E9407018823E1F30E94100190E00895A5
:100270000F931F93CF93DF93009731F461157105AE
:1002800019F480E090E03AC08B01EC016EE070E080
:1002900081E090E00E94B103FC01892B91F380E89A
:1002A00083830115110571F01387028781E8838329
:1002B0008091C2019091C301892B21F4F093C30175
:1002C000E093C2012097C9F0D187C0878381826003
:1002D00083838091C4019091C501892B71F4F093BF
:1002E000C501E093C4018091C6019091C701892B9B
:1002F00021F4F093C701E093C601CF01DF91CF91C4
:100300001F910F910895A0E0B0E0E9E8F1E00C94AE
:10031000B505AE014B5F5F4FFA0161917191AF017D
:100320008091C4019091C5010E94D001E2E00C943B
:10033000D1056091C4017091C5010E940B0508951B
:100340000F931F93CF93DF93E091C401F091C50108
:10035000238121FF1BC08C01D0E0C0E0F801819116
:100360008F016091C4017091C501DB011896ED9178
:10037000FC911997882331F00995892B79F3DFEFE8
:10038000CFEFECCF8AE00995892B19F08FEF9FEF23
:1003900002C08D2F9C2FDF91CF911F910F91089557
:1003A000ABE0B0E0E6EDF1E00C94A5056C017B015B
:1003B0008A01FC0117821682838181FFCCC1CE01A4
:1003C00001963C01F6019381F70193FD859193FF1E
:1003D00081917F01882309F4BAC1853239F493FDF4
:1003E000859193FF81917F01853229F4B60190E0D8
:1003F0000E940B05E7CF912C212C312CFFE1F31546
:10040000D8F08B3279F038F4803279F08332A1F46D
:10041000232D20611DC08D3261F0803369F4232DBE
:10042000216016C0832D8260382EE32DE4603E2EBD
:100430002AC0F32DF8601DC037FC2DC020ED280F19
:100440002A3040F08E32B9F436FC81C1232D20646D
:10045000322E19C036FE06C08AE0989E200D112467
:10046000922E11C0EAE02E9E200D1124222EF32D93
:10047000F0623F2E08C08C3621F4832D8068382E20
:1004800002C0883641F4F70193FD859193FF819175
:100490007F018111B3CF982F9F7D9554933028F41D
:1004A0000C5F1F4F9FE399830DC0833631F0833774
:1004B00071F0833509F059C021C0F801808189832A
:1004C0000E5F1F4F88248394912C530113C0280181
:1004D000F2E04F0E511CF801A080B18036FE03C03F
:1004E000692D70E002C06FEF7FEFC5010E9400052B
:1004F0004C018201F32DFF773F2E16C0280122E028
:10050000420E511CF801A080B18036FE03C0692D57
:1005100070E002C06FEF7FEFC5010E94EE044C0156
:10052000F32DF0683F2E820133FC1BC0822D90E03A
:1005300088169906B0F4B60180E290E00E940B059F
:100540002A94F4CFF50137FC859137FE81915F0144
:10055000B60190E00E940B0521102A9421E0821A36
:1005600091088114910471F7E8C0843611F089363E
:1005700041F5F80137FE07C0608171818281938166
:100580000C5F1F4F08C060817181072E000C880B23
:10059000990B0E5F1F4FF32DFF763F2E97FF09C07B
:1005A00090958095709561957F4F8F4F9F4FF06824
:1005B0003F2E2AE030E0A3010E944705882E8618CE
:1005C00045C0853731F4232D2F7EB22E2AE030E04E
:1005D00025C0932D997FB92E8F36C1F018F4883538
:1005E00079F0B5C0803719F0883721F0B0C0E92F15
:1005F000E061BE2EB4FE0DC0FB2DF460BF2E09C01D
:1006000034FE0AC0292F2660B22E06C028E030E052
:1006100005C020E130E002C020E132E0F801B7FE81
:1006200007C060817181828193810C5F1F4F06C07A
:100630006081718180E090E00E5F1F4FA3010E94F6
:100640004705882E8618FB2DFF773F2E36FE0DC0FE
:10065000232D2E7FA22E891458F434FE0BC032FCB9
:1006600009C0832D8E7EA82E05C0B82CA32C03C0F4
:10067000B82C01C0B92CA4FE0FC0FE01E80DF11D7D
:100680008081803321F49A2D997EA92E09C0A2FE83
:1006900006C0B394B39404C08A2D867809F0B3944D
:1006A000A3FC11C0A0FE06C0B21488F4280C922C42
:1006B0009B180EC0B21460F4B60180E290E00E9474
:1006C0000B05B394F7CFB21418F42B1802C0982C72
:1006D000212CA4FE10C0B60180E390E00E940B051F
:1006E000A2FE17C0A1FC03C088E790E002C088E525
:1006F00090E0B6010CC08A2D867859F0A1FE02C0A8
:100700008BE201C080E2A7FC8DE2B60190E00E947E
:100710000B05891438F4B60180E390E00E940B05C4
:100720009A94F7CF8A94F301E80DF11D8081B60108
:1007300090E00E940B058110F5CF222009F442CEF3
:10074000B60180E290E00E940B052A94F6CFF601F4
:100750008681978102C08FEF9FEF2B96E2E10C9488
:10076000C1050F931F93CF93DF93869F8001879FCF
:10077000100D969F100D1124C8010E94CD03EC01AD
:10078000009729F0A80160E070E00E94F904CE0112
:10079000DF91CF911F910F9108950F931F93CF93E6
:1007A000DF938230910510F482E090E0E091CA017D
:1007B000F091CB0120E030E0A0E0B0E0309719F1FB
:1007C000408151810281138148175907C8F084176D
:1007D000950769F4109731F012960C9312971396BF
:1007E0001C9327C00093CA011093CB0122C021158E
:1007F000310519F04217530718F49A01BD01EF01B2
:10080000DF01F801DBCF21153105F9F0281B390B89
:100810002430310580F48A819B816115710521F0B6
:10082000FB019383828304C09093CB018093CA0120
:10083000FE01329644C0FE01E20FF31F81939193B3
:1008400022503109398328833AC02091C801309160
:10085000C901232B41F4209102013091030130930F
:10086000C9012093C8012091000130910101211597
:10087000310541F42DB73EB7409104015091050177
:10088000241B350BE091C801F091C901E217F30771
:10089000A0F42E1B3F0B2817390778F0AC014E5FF0
:1008A0005F4F2417350748F04E0F5F1F5093C90163
:1008B0004093C8018193919302C0E0E0F0E0CF0142
:1008C000DF91CF911F910F910895CF93DF93009700
:1008D00009F481C0FC01329713821282A091CA01EF
:1008E000B091CB01109781F420813181820F931F49
:1008F0002091C8013091C9012817390751F5F093AB
:10090000C901E093C80167C0ED0120E030E0CE17D7
:10091000DF0740F44A815B819E0141155105F1F0EA
:10092000EA01F5CFD383C28340815181840F951FA3
:10093000C817D90759F488819981840F951F0296A9
:10094000918380838A819B819383828321153105E2
:1009500029F4F093CB01E093CA013DC0E901FB8388
:10096000EA8349915991C40FD51FEC17FD0761F433
:1009700080819181840F951F0296E9019983888374
:10098000828193819B838A83E0E0F0E012968D91CF
:100990009C911397009719F0FD01DC01F7CF8D9121
:1009A0009C9111979D012E5F3F4F820F931F2091C5
:1009B000C8013091C9012817390769F4309729F423
:1009C0001092CB011092CA0102C013821282B0931E
:1009D000C901A093C801DF91CF910895FC01059052
:1009E000615070400110D8F7809590958E0F9F1F31
:1009F0000895DC0101C06D9341505040E0F7089527
:100A0000FC016150704001900110D8F780959095DD
:100A10008E0F9F1F08950F931F93CF93DF93FB01BA
:100A2000238121FD03C08FEF9FEF2CC022FF16C052
:100A300046815781248135814217530744F4A081B0
:100A4000B1819D012F5F3F4F318320838C9326819D
:100A500037812F5F3F4F3783268314C08B01EC0112
:100A6000FB010084F185E02D0995892BE1F6D80181
:100A700016968D919C911797019617969C938E933D
:100A80001697CE01DF91CF911F910F910895FA0132
:100A9000AA27283051F1203181F1E8946F936E7FBD
:100AA0006E5F7F4F8F4F9F4FAF4FB1E03ED0B4E0AE
:100AB0003CD0670F781F891F9A1FA11D680F791FEF
:100AC0008A1F911DA11D6A0F711D811D911DA11D00
:100AD00020D009F468943F912AE0269F1124301910
:100AE000305D3193DEF6CF010895462F4770405DAB
:100AF0004193B3E00FD0C9F7F6CF462F4F70405D5A
:100B00004A3318F0495D31FD4052419302D0A9F7B4
:100B1000EACFB4E0A6959795879577956795BA95AE
:100B2000C9F700976105710508959B01AC010A2E74
:100B300006945795479537952795BA95C9F7620F4B
:100B4000731F841F951FA01D08952F923F924F92EF
:100B50005F926F927F928F929F92AF92BF92CF924D
:100B6000DF92EF92FF920F931F93CF93DF93CDB756
:100B7000DEB7CA1BDB0B0FB6F894DEBF0FBECDBFCE
:100B800009942A88398848885F846E847D848C849F
:100B90009B84AA84B984C884DF80EE80FD800C81A8
:100BA0001B81AA81B981CE0FD11D0FB6F894DEBF8B
:0C0BB0000FBECDBFED010895F894FFCFFB
:100BBC000000CC012000416363657373696E67208C
:100BCC004144432072616E676520283078253034AB
:100BDC0078290A00416363657373696E6720535209
:100BEC00414D2072616E676520283078253034784D
:100BFC00290A00416363657373696E672053524120
:100C0C004D20726567696F6E203220283078253050
:100C1C003478290A00416363657373696E672053E6
:100C2C0052414D20726567696F6E203320283078F1
:100C3C0025303478290A0048656C6C6F20322066A8
:100C4C00726F6D2041546D65676131363221000041
:00000001FF
