:100000000C9426010C9443010C9443010C9443017D
:100010000C9443010C9443010C9443010C94430150
:100020000C9443010C9443010C9443010C94430140
:100030000C9443010C9443010C9443010C94430130
:100040000C9443010C9443010C9443010C94430120
:100050000C948B020C9443010C9443010C944301C7
:100060000C9443010C9443010C9443010C94430100
:10007000000000000000005F0000000700070014FF
:100080007F147F14242A7F2A1223130864623649BE
:100090005522500005030000001C224100004122AF
:1000A0001C00082A1C2A0808083E080800503000D6
:1000B000000808080808006060000020100804021A
:1000C0003E5149453E00427F400042615149462130
:1000D00041454B311814127F1027454545393C4A9C
:1000E00049493001710905033649494936064949EC
:1000F000291E003636000000563600000008142283
:100100004114141414144122140800020151090668
:10011000324979413E7E1111117E7F494949363E6F
:10012000414141227F4141221C7F494949417F0988
:100130000901013E414151327F0808087F00417F9B
:1001400041002040413F017F081422417F40404050
:10015000407F0204027F7F0408107F3E4141413E00
:100160007F090909063E4151215E7F09192946464A
:100170004949493101017F01013F4040403F1F2073
:1001800040201F7F2018207F631408146303047825
:100190000403615149454300007F414102040810B6
:1001A0002041417F000004020102044040404040E1
:1001B000000102040020545454787F4844443838E5
:1001C00044444420384444487F3854545418087EEA
:1001D000090102081454543C7F0804047800447D4B
:1001E00040002040443D00007F10284400417F40F3
:1001F000007C041804787C080404783844444438AB
:100200007C14141408081414187C7C08040408488E
:1002100054545420043F4440203C4040207C1C2047
:1002200040201C3C4030403C44281028440C505096
:10023000503C4464544C44000836410000007F00A8
:1002400000004136080002010302010011241FBE14
:10025000CFEFD4E0DEBFCDBF11E0A0E0B1E0EEE132
:10026000FFE002C005900D92AC3AB107D9F721E04A
:10027000ACEAB1E001C01D92AB3DB207E1F70E94CC
:100280006E010C948D070C9400001092001084EA0B
:100290008A95F1F70895282F90E080E003C08091BF
:1002A00000109F5F2917D8F7089584E191E00E941C
:1002B00051032FEF8FE797E0215080409040E1F706
:1002C00000C000000E94450183E00E944B0182E0D3
:1002D0000E944B0181E08093AC0108950E94B2021C
:1002E00068EE72E08AED92E00E94F0028C01C1EDAE
:1002F000D1E09B838A830E9453020E943B028BE7DA
:1003000091E00E94510386E091E09B838A8383E918
:1003100091E09F938F930E943B031B830A838EE996
:1003200091E00E9451030E9484020E9455010E94A4
:1003300053020E943B020F900F90FFCFCF93C82F24
:1003400082B38B7F82BB80E00E9465028C2F0E946B
:100350007F0280E00E947202CF910895CF93C82F50
:1003600082B3846082BB80E00E9465028C2F0E9471
:100370007F0280E00E947202CF9108958770806BA7
:100380000E949E010895CF93C82F8F700E949E01F6
:100390008C2F82958F7080610E949E01CF9108956D
:1003A000CF93DF938A3089F48091AE0190E001967B
:1003B00087709078992324F40197886F9F6F019636
:1003C0008093AE011092AD0139C0D82F8091AE015B
:1003D0000E94BE018091AD010E94C301D052C0E0D5
:1003E00011C02D2F30E0F901EE0FFF1FEE0FFF1FA0
:1003F000E20FF31FEC0FF11DE059FF4F84910E94B3
:10040000AE01CF5FC53068F380E00E94AE018091FD
:10041000AD018A5F8093AD01882384F41092AD0111
:100420008091AE0190E0019687709078992324F432
:100430000197886F9F6F01968093AE0180E090E0F6
:10044000DF91CF91089582B3886082BB80E18A9565
:10045000F1F700C082B3877F82BB90E19A95F1F7F4
:1004600000C082B3886082BB8FEF9FE20197F1F7F3
:1004700000C00000089581B3846081BB81B38860AF
:1004800081BB0E94230281EA0E949E0188EC0E94A7
:100490009E0180E20E949E0182E00E949E018FEAFE
:1004A0000E949E01089587B3806A87BB87B38061ED
:1004B00087BB87B3816087BB88B3806188BB88B303
:1004C000816088BB81E58DB90895882319F081305A
:1004D00029F0089588B38F7E88BB089588B38E7FF6
:1004E00088BB0895882319F0813029F0089588B3D6
:1004F000806188BB089588B3816088BB08958FB9F7
:10050000779BFECF8FB1089580B7806280BF85B79B
:10051000806885BF08951F920F920FB60F92112425
:100520002F938F939F93EF93FF9323B18091B0010B
:100530008F5F803209F480E09091AF01891741F01C
:10054000E091B001F0E0EF54FE4F20838093B001C2
:10055000FF91EF919F918F912F910F900FBE0F9070
:100560001F9018951CBE8FE180B988E981B986E893
:100570008CBF78940895159BFECF83B90895209180
:10058000B0019091AF0181E0291301C080E008958E
:10059000E091AF01F0E0EF54FE4F80819091AF0108
:1005A0009F5F9093AF019091AF01903211F4109240
:1005B000AF010895CF93C82F8A3019F48DE00E94BF
:1005C000BB028C2F0E94BB0280E090E0CF91089587
:1005D0000E94BF028823E1F30E94C80290E00895C0
:1005E0000F931F93CF93DF93009731F4611571053B
:1005F00019F480E090E03AC08B01EC016EE070E00D
:1006000081E090E00E946205FC01892B91F380E873
:1006100083830115110571F01387028781E88383B5
:100620008091D1019091D201892B21F4F093D201D4
:10063000E093D1012097C9F0D187C0878381826080
:1006400083838091D3019091D401892B71F4F0932D
:10065000D401E093D3018091D5019091D601892BEB
:1006600021F4F093D601E093D501CF01DF91CF9132
:100670001F910F910895A0E0B0E0E1E4F3E00C9445
:100680006607AE014B5F5F4FFA0161917191AF0157
:100690008091D3019091D4010E948103E2E00C94F7
:1006A00082070F931F93CF93DF93E091D301F091D3
:1006B000D401238121FF1BC08C01D0E0C0E0F801F0
:1006C00081918F016091D3017091D401DB01189663
:1006D000ED91FC911997882331F00995892B79F3D5
:1006E000DFEFCFEFECCF8AE00995892B19F08FEF80
:1006F0009FEF02C08D2F9C2FDF91CF911F910F9103
:100700000895ABE0B0E0E7E8F3E00C9456076C0125
:100710007B018A01FC0117821682838181FFCCC193
:10072000CE0101963C01F6019381F70193FD85917D
:1007300093FF81917F01882309F4BAC1853239F48E
:1007400093FD859193FF81917F01853229F4B60154
:1007500090E00E94BC06E7CF912C212C312CFFE1C8
:10076000F315D8F08B3279F038F4803279F0833297
:10077000A1F4232D20611DC08D3261F0803369F416
:10078000232D216016C0832D8260382EE32DE46076
:100790003E2E2AC0F32DF8601DC037FC2DC020ED81
:1007A000280F2A3040F08E32B9F436FC81C1232D57
:1007B0002064322E19C036FE06C08AE0989E200DB5
:1007C0001124922E11C0EAE02E9E200D1124222E1B
:1007D000F32DF0623F2E08C08C3621F4832D806803
:1007E000382E02C0883641F4F70193FD859193FFBE
:1007F00081917F018111B3CF982F9F7D95549330C4
:1008000028F40C5F1F4F9FE399830DC0833631F0AE
:10081000833771F0833509F059C021C0F801808118
:1008200089830E5F1F4F88248394912C530113C03A
:100830002801F2E04F0E511CF801A080B18036FE75
:1008400003C0692D70E002C06FEF7FEFC5010E9409
:10085000B1064C018201F32DFF773F2E16C028010F
:1008600022E0420E511CF801A080B18036FE03C088
:10087000692D70E002C06FEF7FEFC5010E949F06F7
:100880004C01F32DF0683F2E820133FC1BC0822DFA
:1008900090E088169906B0F4B60180E290E00E94DC
:1008A000BC062A94F4CFF50137FC859137FE81917F
:1008B0005F01B60190E00E94BC0621102A9421E05D
:1008C000821A91088114910471F7E8C0843611F0FE
:1008D000893641F5F80137FE07C060817181828158
:1008E00093810C5F1F4F08C060817181072E000C3F
:1008F000880B990B0E5F1F4FF32DFF763F2E97FF4E
:1009000009C090958095709561957F4F8F4F9F4F4F
:10091000F0683F2E2AE030E0A3010E94F806882EFE
:10092000861845C0853731F4232D2F7EB22E2AE05C
:1009300030E025C0932D997FB92E8F36C1F018F481
:10094000883579F0B5C0803719F0883721F0B0C00C
:10095000E92FE061BE2EB4FE0DC0FB2DF460BF2E6A
:1009600009C034FE0AC0292F2660B22E06C028E036
:1009700030E005C020E130E002C020E132E0F801C3
:10098000B7FE07C060817181828193810C5F1F4F28
:1009900006C06081718180E090E00E5F1F4FA3016F
:1009A0000E94F806882E8618FB2DFF773F2E36FE14
:1009B0000DC0232D2E7FA22E891458F434FE0BC0B7
:1009C00032FC09C0832D8E7EA82E05C0B82CA32C26
:1009D00003C0B82C01C0B92CA4FE0FC0FE01E80D65
:1009E000F11D8081803321F49A2D997EA92E09C0B2
:1009F000A2FE06C0B394B39404C08A2D867809F091
:100A0000B394A3FC11C0A0FE06C0B21488F4280C55
:100A1000922C9B180EC0B21460F4B60180E290E0F4
:100A20000E94BC06B394F7CFB21418F42B1802C07E
:100A3000982C212CA4FE10C0B60180E390E00E9407
:100A4000BC06A2FE17C0A1FC03C088E790E002C06C
:100A500088E590E0B6010CC08A2D867859F0A1FE99
:100A600002C08BE201C080E2A7FC8DE2B60190E0FB
:100A70000E94BC06891438F4B60180E390E00E941D
:100A8000BC069A94F7CF8A94F301E80DF11D80819A
:100A9000B60190E00E94BC068110F5CF222009F437
:100AA00042CEB60180E290E00E94BC062A94F6CFC6
:100AB000F6018681978102C08FEF9FEF2B96E2E1CE
:100AC0000C9472070F931F93CF93DF93869F80013F
:100AD000879F100D969F100D1124C8010E947E055E
:100AE000EC01009729F0A80160E070E00E94AA06DE
:100AF000CE01DF91CF911F910F9108950F931F9316
:100B0000CF93DF938230910510F482E090E0E09182
:100B1000D901F091DA0120E030E0A0E0B0E03097B8
:100B200019F1408151810281138148175907C8F09A
:100B30008417950769F4109731F012960C93129769
:100B400013961C9327C00093D9011093DA0122C099
:100B50002115310519F04217530718F49A01BD0108
:100B6000EF01DF01F801DBCF21153105F9F0281B7A
:100B7000390B2430310580F48A819B816115710520
:100B800021F0FB019383828304C09093DA01809368
:100B9000D901FE01329644C0FE01E20FF31F81939A
:100BA000919322503109398328833AC02091D7018B
:100BB0003091D801232B41F420910201309103019F
:100BC0003093D8012093D701209100013091010189
:100BD0002115310541F42DB73EB7409104015091E4
:100BE0000501241B350BE091D701F091D801E217E4
:100BF000F307A0F42E1B3F0B2817390778F0AC0140
:100C00004E5F5F4F2417350748F04E0F5F1F50931C
:100C1000D8014093D7018193919302C0E0E0F0E0C6
:100C2000CF01DF91CF911F910F910895CF93DF9363
:100C3000009709F481C0FC01329713821282A091BF
:100C4000D901B091DA01109781F420813181820FAE
:100C5000931F2091D7013091D8012817390751F5FA
:100C6000F093D801E093D70167C0ED0120E030E0B8
:100C7000CE17DF0740F44A815B819E014115510583
:100C8000F1F0EA01F5CFD383C28340815181840F13
:100C9000951FC817D90759F488819981840F951F2A
:100CA0000296918380838A819B819383828321151D
:100CB000310529F4F093DA01E093D9013DC0E9014F
:100CC000FB83EA8349915991C40FD51FEC17FD07A7
:100CD00061F480819181840F951F0296E9019983C7
:100CE0008883828193819B838A83E0E0F0E012967F
:100CF0008D919C911397009719F0FD01DC01F7CFBE
:100D00008D919C9111979D012E5F3F4F820F931FF4
:100D10002091D7013091D8012817390769F430970D
:100D200029F41092DA011092D90102C013821282C2
:100D3000B093D801A093D701DF91CF910895FC0122
:100D40000590615070400110D8F7809590958E0FF6
:100D50009F1F0895DC0101C06D9341505040E0F7A2
:100D60000895FC016150704001900110D8F7809502
:100D700090958E0F9F1F08950F931F93CF93DF932E
:100D8000FB01238121FD03C08FEF9FEF2CC022FFC9
:100D900016C046815781248135814217530744F498
:100DA000A081B1819D012F5F3F4F318320838C93C0
:100DB000268137812F5F3F4F3783268314C08B01F5
:100DC000EC01FB010084F185E02D0995892BE1F60A
:100DD000D80116968D919C911797019617969C9322
:100DE0008E931697CE01DF91CF911F910F910895A9
:100DF000FA01AA27283051F1203181F1E8946F934C
:100E00006E7F6E5F7F4F8F4F9F4FAF4FB1E03ED0F1
:100E1000B4E03CD0670F781F891F9A1FA11D680F8F
:100E2000791F8A1F911DA11D6A0F711D811D911DC2
:100E3000A11D20D009F468943F912AE0269F112437
:100E40003019305D3193DEF6CF010895462F47709B
:100E5000405D4193B3E00FD0C9F7F6CF462F4F70F6
:100E6000405D4A3318F0495D31FD4052419302D054
:100E7000A9F7EACFB4E0A6959795879577956795FA
:100E8000BA95C9F700976105710508959B01AC01FA
:100E90000A2E06945795479537952795BA95C9F721
:100EA000620F731F841F951FA01D08952F923F92FC
:100EB0004F925F926F927F928F929F92AF92BF926A
:100EC000CF92DF92EF92FF920F931F93CF93DF9316
:100ED000CDB7DEB7CA1BDB0B0FB6F894DEBF0FBE73
:100EE000CDBF09942A88398848885F846E847D84C0
:100EF0008C849B84AA84B984C884DF80EE80FD80C2
:100F00000C811B81AA81B981CE0FD11D0FB6F89437
:0E0F1000DEBF0FBECDBFED010895F894FFCFF8
:100F1E000000DB0120000000000200000000D001F4
:100F2E000000000043616C6962726174696E672033
:100F3E006A6F79737469636B202D2D206C656176F1
:100F4E00652069742063656E74657265642E2E2E3D
:100F5E00005741524E494E4720434845434B205976
:100F6E004F55522043414C4942524154494F4E0035
:100F7E004C45465400524947485400555000444F82
:100F8E00574E004E45555452414C0048656C6C6F9F
:100F9E0020322066726F6D2041546D656761313667
:100FAE0032210048454C4C4F204F4C454400426185
:0C0FBE00636B206F6E2052533233320000
:00000001FF
