S00D000055534152542E7372656388
S11300000C9426010C9443010C9443010C94430179
S11300100C9443010C9443010C9443010C9443014C
S11300200C9443010C9443010C9443010C9443013C
S11300300C9443010C9443010C9443010C9443012C
S11300400C9443010C9443010C9443010C9443011C
S11300500C9453060C9443010C9443010C944301F7
S11300600C9443010C9443010C9443010C944301FC
S1130070000000000000005F0000000700070014FB
S11300807F147F14242A7F2A1223130864623649BA
S11300905522500005030000001C224100004122AB
S11300A01C00082A1C2A0808083E080800503000D2
S11300B00008080808080060600000201008040216
S11300C03E5149453E00427F40004261514946212C
S11300D041454B311814127F1027454545393C4A98
S11300E049493001710905033649494936064949E8
S11300F0291E00363600000056360000000814227F
S11301004114141414144122140800020151090664
S1130110324979413E7E1111117E7F494949363E6B
S1130120414141227F4141221C7F494949417F0984
S11301300901013E414151327F0808087F00417F97
S113014041002040413F017F081422417F4040404C
S1130150407F0204027F7F0408107F3E4141413EFC
S11301607F090909063E4151215E7F091929464646
S11301704949493101017F01013F4040403F1F206F
S113018040201F7F2018207F631408146303047821
S11301900403615149454300007F414102040810B2
S11301A02041417F000004020102044040404040DD
S11301B0000102040020545454787F4844443838E1
S11301C044444420384444487F3854545418087EE6
S11301D0090102081454543C7F0804047800447D47
S11301E040002040443D00007F10284400417F40EF
S11301F0007C041804787C080404783844444438A7
S11302007C14141408081414187C7C08040408488A
S113021054545420043F4440203C4040207C1C2043
S113022040201C3C4030403C44281028440C505092
S1130230503C4464544C44000836410000007F00A4
S113024000004136080002010302010011241FBE10
S1130250CFEFD4E0DEBFCDBF12E0A0E0B1E0EEEA24
S1130260F6E102C005900D92AE38B107D9F722E04D
S1130270AEE8B2E001C01D92AD3BB207E1F70E94C7
S113028015020C94550B0C9400001092001084EA93
S11302908A95F1F70895282F90E080E003C08091BB
S11302A000109F5F2917D8F708958EE791E00E9408
S11302B019072FEF8FE797E0215080409040E1F736
S11302C000C000000E94450183E00E944B0182E0CF
S11302D00E944B0181E080938E0208951F93CF9377
S11302E0DF9381E00E94280683E00E94470681E4B0
S11302F08A95F1F700C080E00E944706182F83E03A
S11303008A95F1F7000080E00E944706D82F83E029
S11303108A95F1F7000080E00E944706C82F81E02B
S11303200E943A06612F7D2F8C2FDF91CF911F9170
S113033008951F93CF93DF9381E00E94280684E001
S11303400E94470681E48A95F1F700C080E00E948C
S11303504706182F83E08A95F1F7000080E00E9499
S11303604706D82F83E08A95F1F7000080E00E94C9
S11303704706C82F81E00E943A06612F7D2F8C2FFB
S1130380DF91CF911F910895CF93DF938630A8F426
S1130390D62FC82F81E00E94280685E00E944706D8
S11303A081E48A95F1F700C08C2F0E9447068D2FB7
S11303B00E94470681E00E943A06DF91CF9108959A
S11303C00F931F93CF93DF93082F162F81E0011112
S11303D001C080E0112311F0D2E001C0D0E0D82B9D
S11303E0809106018D2780FD07C009C0602F8C2FE6
S11303F00E94C401CF5F01C0C0E0C330B8F3809154
S113040006018D2781FD07C009C0612F8C2F0E9432
S1130410C401CF5F01C0C3E0C630B8F3D093060176
S1130420DF91CF911F910F9108950E947A0660EB9E
S113043076E082EA96E00E94B806C3EBD2E09B83A2
S11304408A8385EE91E00E9419070E944C060E945F
S113045055010E941A060E946C0580E791E09B8377
S11304608A830E94C3058AE291E00E948003282FB8
S1130470082E000C330B3F938F938DEF91E09F93E5
S11304808F930E9403070F900F900F900F900E947C
S11304909901C62FD72F182F0E944903DF7721F423
S11304A0882321F081E003C081E001C080E0CF73A4
S11304B021F41F7121F061E003C061E001C060E03C
S11304C00E94E00180E090EF0197F1F7E0CF8630E1
S11304D010F08550089580E00895CF93C82F0E94AE
S11304E06702C81B8C2F8F5FCF910895CF93DF9342
S11304F000D0CDB7DEB769831A820E946D0260E036
S11305000E944B05CE0101960E94EB050F900F90BF
S1130510DF91CF910895CF93C82F87E00E94DB0528
S113052060E087E00E944B05C13029F484E492E046
S11305300E94EB050BC0C23029F489E592E00E94C9
S1130540EB0504C08EE692E00E94EB05CF9108957E
S1130550EF92FF920F931F93CF93DF938C01F62EAC
S1130560862F0E946702E82E0E94C30560E080E0A7
S11305700E944B05F801808191810E94EB05D0E037
S11305801FC0CD2FCE0DF8018289C817D8F4DF5FC4
S113059060E08D2F0E944B05FC1203C084E892E0BA
S11305A002C086E892E00E94EB05EC2FF0E0319661
S11305B0EE0FFF1FE00FF11F808191810E94EB0578
S11305C0D630F8F280E00E948B02DF91CF911F9128
S11305D00F91FF90EF900895FC01DA019C9199230B
S11305E011F091509C939C91292F30E0DB01A20FD4
S11305F0B31F220F331FE20FF31F6C91808191818F
S11306000E94A8020895CF93DF93EA01E8812E2F78
S113061030E0D901AA0FBB1FA80FB91F4D915C91FF
S1130620DB01A20FB31F2C91A22FB0E0AA0FBB1FB6
S1130630A40FB51F53962D913C9154972130310549
S113064021F4AE010E94EC0221C0E730F8F4EF5F20
S1130650E883F0E0EE0FFF1FE80FF91F21153105C5
S113066011F42DE431E0318320832881FB01E20F72
S1130670F11D1082288130E0220F331FFC01E20FAC
S1130680F31F60E0808191810E94A802DF91CF91E5
S113069008950E946E01813049F1262F30E02E57D3
S11306A03109872F90E08E579109A901332324F44F
S11306B044275527421B530BBC01992324F4662776
S11306C07727681B790B6417750744F429323105C1
S11306D07CF4283D3F4F74F080E008958932910501
S11306E05CF4883D9F4F54F080E0089585E00895C0
S11306F084E0089583E0089581E0089582E00895F8
S1130700CF93DF93CDB7DEB769970FB6F894DEBF0A
S11307100FBECDBF198E9A838983198A60E00E9427
S1130720A802C12CAA24A394B12C00E0D12C0E94CD
S11307304903182F0E949901962F9072E92EF12CEB
S11307407F7721F4112321F091E003C091E001C0EF
S113075090E06F7321F48F7121F061E003C061E0D8
S113076001C060E0892F0E94E001998D292F30E0BB
S1130770F901EE0FFF1F41E050E04C0F5D1FE40F45
S1130780F51F0190F081E02D002309F461C0E1140C
S1130790F10471F0A1E1B0E0AC0FBD1FA20FB31FD3
S11307A06C91CF010E94A802CC24C39400E048C0FD
S11307B0013011F4133029F4023051F4143029F4C7
S11307C007C0EE24E394F12C03C0EE24E394F12C4F
S11307D0EF28D1F0013061F4AE01475E5F4FBE01F6
S11307E06F5E7F4FCE0101960E94EC0200E028C0AC
S11307F0AE01475E5F4FBE016F5E7F4FCE01019633
S11308000E94030300E01CC0B3945BE05B15C0F4DA
S113081081E0A11080E0F82EA11004C0013021F481
S11308206CE303C060E201C06EE3E1E1F0E0EC0FD1
S1130830FD1FE20FF31F80810E947602AF2CB12CC2
S11308408FEF9FE50197F1F700C00000D12E6FCF25
S1130850CC2059F0111101C0C12C8FEF9FE50197F5
S1130860F1F700C00000D12E62CF112349F0D1125C
S113087007C08FEF9FE50197F1F700C0000057CF45
S1130880113031F5A1E1B0E0AC0FBD1FA20FB31FD1
S11308908C9181110AC08289A1E1B0E0AC0FBD1F27
S11308A0A20FB31F81508C9308C0A1E1B0E0AC0F3C
S11308B0BD1FA20FB31F81508C93A1E1B0E0AC0F18
S11308C0BD1FA20FB31F6C91CF010E94A80256C096
S11308D01230F1F4A1E1B0E0AC0FBD1FA20FB31FC1
S11308E08C918F5F8C939289891738F0A1E1B0E0E5
S11308F0AC0FBD1FA20FB31F1C92A1E1B0E0AC0F5F
S1130900BD1FA20FB31F6C91CF010E94A80236C075
S11309101330A1F4992391F0E1E1F0E0EC0FFD1F15
S1130920E20FF31F6CE380810E94760281E00E9453
S11309308B02AA24A394B12C01E020C0143091F4BA
S1130940E1E1F0E0EC0FFD1FE20FF31F6EE38081A5
S11309500E94760282E00E948B02AA24A394B12C06
S113096002E00CC0153051F4AE01475E5F4FBE018A
S11309706F5E7F4FCE0101960E9403038FEF9FE5C8
S11309800197F1F700C00000D12ED1CECF93C82F2C
S113099082B38B7F82BB80E00E9428068C2F0E944A
S11309A0470680E00E943A06CF910895CF93C82F5E
S11309B082B3846082BB80E00E9428068C2F0E9450
S11309C0470680E00E943A06CF9108958770806BB5
S11309D00E94C6040895CF93C82F8F700E94C60446
S11309E08C2F82958F7080610E94C604CF910895E8
S11309F0CF93DF938A3089F48091900290E001963E
S1130A0087709078992324F40197886F9F6F0196DB
S1130A108093900210928F0239C0D82F8091900257
S1130A200E94E60480918F020E94EB04D052C0E041
S1130A3011C02D2F30E0F901EE0FFF1FEE0FFF1F45
S1130A40E20FF31FEC0FF11DE059FF4F84910E9458
S1130A50D604CF5FC53068F380E00E94D60480914D
S1130A608F028A5F80938F02882384F410928F020E
S1130A708091900290E0019687709078992324F4F5
S1130A800197886F9F6F01968093900280E090E0B9
S1130A90DF91CF910895CF93C62F0E94E6048C2F47
S1130AA00E94EB04CF91089582B3886082BB80E1F9
S1130AB08A95F1F700C082B3877F82BB90E19A9553
S1130AC0F1F700C082B3886082BB8FEF9FE2019789
S1130AD0F1F700C00000089581B3846081BB81B345
S1130AE0886081BB0E9454058EEA0E94C60485ED8D
S1130AF00E94C60480E80E94C60488EA0E94C604D4
S1130B008FE30E94C60483ED0E94C60480E00E9425
S1130B10C60480E40E94C60481EA0E94C60488ECEC
S1130B200E94C6048AED0E94C60482E10E94C604A3
S1130B3081E80E94C6048FE70E94C60489ED0E94E2
S1130B40C60482E20E94C6048BED0E94C60484E3BC
S1130B500E94C60484EA0E94C60486EA0E94C6046F
S1130B6080E20E94C60482E00E94C6042FEF8FE751
S1130B7091E0215080409040E1F700C000C08FEA2E
S1130B800E94C6040895CF93DF93D0E00FC08D2F49
S1130B900E94E60480E00E94EB04C0E004C080E010
S1130BA00E94D604CF5FCC23D4F7DF5FD83078F32C
S1130BB0DF91CF910895CF930E94E60480E00E94D4
S1130BC0EB04C0E004C080E00E94D604CF5FCC23D5
S1130BD0D4F7CF9108950F931F93CF93DF93EC0134
S1130BE01AC0005210E011C0802F90E0FC01EE0FFB
S1130BF0FF1FEE0FFF1FE80FF91FE10FF11DE05972
S1130C00FF4F84910E94D6041F5F153068F380E083
S1130C100E94D604219608810111E3CFDF91CF9180
S1130C201F910F91089588B3806188BB88B3816058
S1130C3088BB089587B3806A87BB87B3806187BB0D
S1130C4087B3816087BB0E94130681E58DB908953F
S1130C50CF93C82F0E941306CC2319F0C13029F07A
S1130C6007C088B38F7E88BB03C088B38E7F88BBE0
S1130C70CF910895882319F0813029F0089588B31D
S1130C80806188BB089588B3816088BB08958FB95B
S1130C90779BFECF8FB1089580B7806280BF85B700
S1130CA0806885BF08951F920F920FB60F9211248A
S1130CB02F938F939F93EF93FF9323B1809192028D
S1130CC08F5F803209F480E090919102891741F09E
S1130CD0E0919202F0E0ED56FD4F20838093920262
S1130CE0FF91EF919F918F912F910F900FBE0F90D5
S1130CF01F9018951CBE8FE180B988E981B986E8F8
S1130D008CBF78940895159BFECF83B908952091E4
S1130D1092029091910281E0291301C080E008952C
S1130D20E0919102F0E0ED56FD4F808190919102A7
S1130D309F5F9093910290919102903211F41092DE
S1130D4091020895CF93C82F8A3019F48DE00E9440
S1130D5083068C2F0E94830680E090E0CF91089553
S1130D600E9487068823E1F30E94900690E008958C
S1130D700F931F93CF93DF93009731F4611571059F
S1130D8019F480E090E03AC08B01EC016EE070E071
S1130D9081E090E00E942A09FC01892B91F380E80C
S1130DA083830115110571F01387028781E883831A
S1130DB08091B3029091B402892B21F4F093B40290
S1130DC0E093B3022097C9F0D187C0878381826002
S1130DD083838091B5029091B602892B71F4F093CC
S1130DE0B602E093B5028091B7029091B802892BC4
S1130DF021F4F093B802E093B702CF01DF91CF91D1
S1130E001F910F910895A0E0B0E0E9E0F7E00C94A1
S1130E102E0BAE014B5F5F4FFA0161917191AF01EF
S1130E208091B5029091B6020E944907E2E00C94C9
S1130E304A0B0F931F93CF93DF93E091B502F09188
S1130E40B602238121FF1BC08C01D0E0C0E0F80171
S1130E5081918F016091B5027091B602DB01189601
S1130E60ED91FC911997882331F00995892B79F339
S1130E70DFEFCFEFECCF8AE00995892B19F08FEFE4
S1130E809FEF02C08D2F9C2FDF91CF911F910F9167
S1130E900895ABE0B0E0EFE4F7E00C941E0B6C01B6
S1130EA07B018A01FC0117821682838181FFCCC1F8
S1130EB0CE0101963C01F6019381F70193FD8591E2
S1130EC093FF81917F01882309F4BAC1853239F4F3
S1130ED093FD859193FF81917F01853229F4B601B9
S1130EE090E00E94840AE7CF912C212C312CFFE161
S1130EF0F315D8F08B3279F038F4803279F08332FC
S1130F00A1F4232D20611DC08D3261F0803369F47A
S1130F10232D216016C0832D8260382EE32DE460DA
S1130F203E2E2AC0F32DF8601DC037FC2DC020EDE5
S1130F30280F2A3040F08E32B9F436FC81C1232DBB
S1130F402064322E19C036FE06C08AE0989E200D19
S1130F501124922E11C0EAE02E9E200D1124222E7F
S1130F60F32DF0623F2E08C08C3621F4832D806867
S1130F70382E02C0883641F4F70193FD859193FF22
S1130F8081917F018111B3CF982F9F7D9554933028
S1130F9028F40C5F1F4F9FE399830DC0833631F013
S1130FA0833771F0833509F059C021C0F80180817D
S1130FB089830E5F1F4F88248394912C530113C09F
S1130FC02801F2E04F0E511CF801A080B18036FEDA
S1130FD003C0692D70E002C06FEF7FEFC5010E946E
S1130FE0790A4C018201F32DFF773F2E16C02801A8
S1130FF022E0420E511CF801A080B18036FE03C0ED
S1131000692D70E002C06FEF7FEFC5010E94670A8F
S11310104C01F32DF0683F2E820133FC1BC0822D5E
S113102090E088169906B0F4B60180E290E00E9440
S1131030840A2A94F4CFF50137FC859137FE819117
S11310405F01B60190E00E94840A21102A9421E0F5
S1131050821A91088114910471F7E8C0843611F062
S1131060893641F5F80137FE07C0608171818281BC
S113107093810C5F1F4F08C060817181072E000CA3
S1131080880B990B0E5F1F4FF32DFF763F2E97FFB2
S113109009C090958095709561957F4F8F4F9F4FB4
S11310A0F0683F2E2AE030E0A3010E94C00A882E97
S11310B0861845C0853731F4232D2F7EB22E2AE0C1
S11310C030E025C0932D997FB92E8F36C1F018F4E6
S11310D0883579F0B5C0803719F0883721F0B0C071
S11310E0E92FE061BE2EB4FE0DC0FB2DF460BF2ECF
S11310F009C034FE0AC0292F2660B22E06C028E09B
S113110030E005C020E130E002C020E132E0F80127
S1131110B7FE07C060817181828193810C5F1F4F8C
S113112006C06081718180E090E00E5F1F4FA301D3
S11311300E94C00A882E8618FB2DFF773F2E36FEAC
S11311400DC0232D2E7FA22E891458F434FE0BC01B
S113115032FC09C0832D8E7EA82E05C0B82CA32C8A
S113116003C0B82C01C0B92CA4FE0FC0FE01E80DC9
S1131170F11D8081803321F49A2D997EA92E09C016
S1131180A2FE06C0B394B39404C08A2D867809F0F5
S1131190B394A3FC11C0A0FE06C0B21488F4280CBA
S11311A0922C9B180EC0B21460F4B60180E290E059
S11311B00E94840AB394F7CFB21418F42B1802C017
S11311C0982C212CA4FE10C0B60180E390E00E946C
S11311D0840AA2FE17C0A1FC03C088E790E002C005
S11311E088E590E0B6010CC08A2D867859F0A1FEFE
S11311F002C08BE201C080E2A7FC8DE2B60190E060
S11312000E94840A891438F4B60180E390E00E94B5
S1131210840A9A94F7CF8A94F301E80DF11D808132
S1131220B60190E00E94840A8110F5CF222009F4CF
S113123042CEB60180E290E00E94840A2A94F6CF5E
S1131240F6018681978102C08FEF9FEF2B96E2E132
S11312500C943A0B0F931F93CF93DF93869F8001D7
S1131260879F100D969F100D1124C8010E944609F6
S1131270EC01009729F0A80160E070E00E94720A76
S1131280CE01DF91CF911F910F9108950F931F937A
S1131290CF93DF938230910510F482E090E0E091E7
S11312A0BB02F091BC0220E030E0A0E0B0E0309757
S11312B019F1408151810281138148175907C8F0FF
S11312C08417950769F4109731F012960C931297CE
S11312D013961C9327C00093BB021093BC0222C038
S11312E02115310519F04217530718F49A01BD016D
S11312F0EF01DF01F801DBCF21153105F9F0281BDF
S1131300390B2430310580F48A819B816115710584
S113131021F0FB019383828304C09093BC028093E9
S1131320BB02FE01329644C0FE01E20FF31F81931B
S1131330919322503109398328833AC02091B9020C
S11313403091BA02232B41F4209102013091030120
S11313503093BA022093B902209100013091010127
S11313602115310541F42DB73EB740910401509148
S11313700501241B350BE091B902F091BA02E21782
S1131380F307A0F42E1B3F0B2817390778F0AC01A4
S11313904E5F5F4F2417350748F04E0F5F1F509381
S11313A0BA024093B9028193919302C0E0E0F0E065
S11313B0CF01DF91CF911F910F910895CF93DF93C8
S11313C0009709F481C0FC01329713821282A09124
S11313D0BB02B091BC02109781F420813181820F4D
S11313E0931F2091B9023091BA022817390751F599
S11313F0F093BA02E093B90267C0ED0120E030E057
S1131400CE17DF0740F44A815B819E0141155105E7
S1131410F1F0EA01F5CFD383C28340815181840F77
S1131420951FC817D90759F488819981840F951F8E
S11314300296918380838A819B8193838283211581
S1131440310529F4F093BC02E093BB023DC0E901ED
S1131450FB83EA8349915991C40FD51FEC17FD070B
S113146061F480819181840F951F0296E90199832B
S11314708883828193819B838A83E0E0F0E01296E3
S11314808D919C911397009719F0FD01DC01F7CF22
S11314908D919C9111979D012E5F3F4F820F931F59
S11314A02091B9023091BA022817390769F43097AC
S11314B029F41092BC021092BB0202C01382128261
S11314C0B093BA02A093B902DF91CF910895FC01C1
S11314D00590615070400110D8F7809590958E0F5B
S11314E09F1F0895DC0101C06D9341505040E0F707
S11314F00895FC016150704001900110D8F7809567
S113150090958E0F9F1F08950F931F93CF93DF9392
S1131510FB01238121FD03C08FEF9FEF2CC022FF2D
S113152016C046815781248135814217530744F4FC
S1131530A081B1819D012F5F3F4F318320838C9324
S1131540268137812F5F3F4F3783268314C08B0159
S1131550EC01FB010084F185E02D0995892BE1F66E
S1131560D80116968D919C911797019617969C9386
S11315708E931697CE01DF91CF911F910F9108950D
S1131580FA01AA27283051F1203181F1E8946F93B0
S11315906E7F6E5F7F4F8F4F9F4FAF4FB1E03ED056
S11315A0B4E03CD0670F781F891F9A1FA11D680FF4
S11315B0791F8A1F911DA11D6A0F711D811D911D27
S11315C0A11D20D009F468943F912AE0269F11249C
S11315D03019305D3193DEF6CF010895462F477000
S11315E0405D4193B3E00FD0C9F7F6CF462F4F705B
S11315F0405D4A3318F0495D31FD4052419302D0B9
S1131600A9F7EACFB4E0A69597958795779567955E
S1131610BA95C9F700976105710508959B01AC015E
S11316200A2E06945795479537952795BA95C9F785
S1131630620F731F841F951FA01D08952F923F9260
S11316404F925F926F927F928F929F92AF92BF92CE
S1131650CF92DF92EF92FF920F931F93CF93DF937A
S1131660CDB7DEB7CA1BDB0B0FB6F894DEBF0FBED7
S1131670CDBF09942A88398848885F846E847D8424
S11316808C849B84AA84B984C884DF80EE80FD8026
S11316900C811B81AA81B981CE0FD11D0FB6F8949C
S11116A0DEBF0FBECDBFED010895F894FFCF5D
S11316AE0000BD022000FF0B0213021E02240200E2
S11316BE0000000000000000000300000000010014
S11316CE00000000000000000000290233020B029B
S11316DE3E020000000000000000000003000007AE
S11316EE0100000000000000000000000088022439
S11316FE02000000000000000000000000000001D5
S113170E01000000000000000000000000000000C6
S113171E0000000200000000F80400000000436115
S113172E6C6962726174696E67206A6F7973746929
S113173E636B202D2D206C656176652069742063A2
S113174E656E74657265642E2E2E005741524E4995
S113175E4E4720434845434B20594F555220434151
S113176E4C4942524154494F4E004C454654005246
S113177E4947485400555000444F574E004E455566
S113178E5452414C0048656C6C6F20322066726F67
S113179E6D2041546D656761313632210053656C9D
S11317AE65637465643A2025640A004F7074696F2A
S11317BE6E73004272696768746E65737300536F5B
S11317CE756E64004261636B004D61696E204D65F8
S11317DE6E750053746172742047616D65004162C9
S11317EE6F75740052656C656173653A3C20535293
S11317FE363A43616E63656C0052656C6561736560
S113180E3A3E205352363A43616E63656C00552F4F
S113181E44204D6F766520203C204261636B203E50
S111182E20476F003E002000456D7074790065
S9030000FC
