:100000000C9426010C9443010C9443010C9443017D
:100010000C9443010C9443010C9443010C94430150
:100020000C9443010C9443010C9443010C94430140
:100030000C9443010C9443010C9443010C94430130
:100040000C9443010C9443010C9443010C94430120
:100050000C94A8040C9443010C9443010C944301A8
:100060000C9443010C9443010C9443010C94430100
:10007000000000000000005F0000000700070014FF
:100080007F147F14242A7F2A1223130864623649BE
:100090005522500005030000001C224100004122AF
:1000A0001C00082A1C2A0808083E080800503000D6
:1000B000000808080808006060000020100804021A
:1000C0003E5149453E00427F400042615149462130
:1000D00041454B311814127F1027454545393C4A9C
:1000E00049493001710905033649494936064949EC
:1000F000291E003636000000563600000008142283
:100100004114141414144122140800020151090668
:10011000324979413E7E1111117E7F494949363E6F
:10012000414141227F4141221C7F494949417F0988
:100130000901013E414151327F0808087F00417F9B
:1001400041002040413F017F081422417F40404050
:10015000407F0204027F7F0408107F3E4141413E00
:100160007F090909063E4151215E7F09192946464A
:100170004949493101017F01013F4040403F1F2073
:1001800040201F7F2018207F631408146303047825
:100190000403615149454300007F414102040810B6
:1001A0002041417F000004020102044040404040E1
:1001B000000102040020545454787F4844443838E5
:1001C00044444420384444487F3854545418087EEA
:1001D000090102081454543C7F0804047800447D4B
:1001E00040002040443D00007F10284400417F40F3
:1001F000007C041804787C080404783844444438AB
:100200007C14141408081414187C7C08040408488E
:1002100054545420043F4440203C4040207C1C2047
:1002200040201C3C4030403C44281028440C505096
:10023000503C4464544C44000836410000007F00A8
:1002400000004136080002010302010011241FBE14
:10025000CFEFD4E0DEBFCDBF12E0A0E0B1E0E8E533
:10026000F3E102C005900D92A631B107D9F722E063
:10027000A6E1B2E001C01D92A434B207E1F70E94EA
:10028000DE010C94AA090C9400001092001084EA7C
:100290008A95F1F70895282F90E080E003C08091BF
:1002A00000109F5F2917D8F708958CE491E00E9411
:1002B0006E052FEF8FE797E0215080409040E1F7E7
:1002C00000C000000E94450183E00E944B0182E0D3
:1002D0000E944B0181E08093160208951F93CF93F3
:1002E000DF9381E00E94820483E00E949C0481E409
:1002F0008A95F1F700C080E00E949C04182F83E0EB
:100300008A95F1F7000080E00E949C04D82F83E0DA
:100310008A95F1F7000080E00E949C04C82F81E0DC
:100320000E948F04612F7D2F8C2FDF91CF911F9121
:1003300008951F93CF93DF9381E00E94820484E0AD
:100340000E949C0481E48A95F1F700C080E00E943D
:100350009C04182F83E08A95F1F7000080E00E944A
:100360009C04D82F83E08A95F1F7000080E00E947A
:100370009C04C82F81E00E948F04612F7D2F8C2F59
:10038000DF91CF911F910895CF93DF93D82FC62F80
:1003900081E00E94820485E00E949C0481E48A95A9
:1003A000F1F700C08D2F0E949C048C2F0E949C04AA
:1003B00081E00E948F04DF91CF9108950E94CF04C5
:1003C00065E075E087EF94E00E940D0590933D0293
:1003D00080933C020E9470040E94D90383EB91E059
:1003E0000E946E050E94A1040E9455010E947004A3
:1003F0000E94D9030E94300489E291E00E948D029C
:10040000282F082E000C330B3F938F938BEC91E039
:100410009F938F930E9458050F900F900F900F900D
:100420000E949901C82F809117028C2780FF0BC072
:10043000C0FF05C061E080E00E94C40104C060E02C
:1004400080E00E94C401C093170280E090EF019702
:10045000F1F7E6CF0F931F93CF93DF938C01D62F45
:100460000E943004C0E019C060E08C2F0E94B803E5
:10047000CD1303C082E192E002C084E192E00E94C9
:100480004804EC2FF0E03196EE0FFF1FE00FF11F54
:10049000808191810E944804CF5FF8018289C8174A
:1004A00018F3DF91CF911F910F9108950E946E0173
:1004B000813049F1262F30E02E573109872F90E007
:1004C0008E579109A901332324F444275527421B51
:1004D000530BBC01992324F466277727681B790BFB
:1004E0006417750744F4293231057CF4283D3F4FE9
:1004F00074F080E00895893291055CF4883D9F4F47
:1005000054F080E0089585E0089584E0089583E044
:10051000089581E0089582E00895FF920F931F935C
:10052000CF93DF93CDB7DEB768970FB6F894DEBFF1
:100530000FBECDBF9A838983198A60E00E942A0288
:1005400000E0F12C01C0012F0E945602182F8823D1
:1005500049F0081307C08FEF9FE50197F1F700C03E
:100560000000F1CF2F2D30E0F901EE0FFF1F41E029
:1005700050E04C0F5D1FE40FF51F80819181113019
:1005800031F5E1E1F0E0EC0FFD1FE20FF31F4081D8
:1005900041110BC0FC014289E1E1F0E0EC0FFD1FCD
:1005A000E20FF31F4150408308C0E1E1F0E0EC0F9F
:1005B000FD1FE20FF31F41504083E1E1F0E0EC0F3B
:1005C000FD1FE20FF31F60810E942A028BC01230D0
:1005D000F1F4E1E1F0E0EC0FFD1FE20FF31F4081C9
:1005E0004F5F4083FC015289451738F0E1E1F0E0AC
:1005F000EC0FFD1FE20FF31F1082E1E1F0E0EC0FC2
:10060000FD1FE20FF31F60810E942A026BC01530AC
:1006100009F04EC0E1E1F0E0EC0FFD1FE20FF31F27
:100620004081242F30E0220F331FFC01E20FF31F23
:100630008389948981309105D1F4FF2009F452C057
:10064000FA948F2D90E0A1E1B0E0AC0FBD1FA80F90
:10065000B91F880F991FE1E0F0E0EC0FFD1FE80FD4
:10066000F91F6C91808191810E942A023BC0009702
:10067000E1F0F6E0FF15C8F0F3942F2D30E0F9011A
:10068000EE0FFF1F41E050E04C0F5D1FE40FF51F20
:1006900091838083E1E1F0E0EC0FFD1FE20FF31F97
:1006A000108260E00E942A021DC0892BD9F421C06B
:1006B0001330C1F4FF20B1F0FA948F2D90E0A1E146
:1006C000B0E0AC0FBD1FA80FB91F880F991FE1E064
:1006D000F0E0EC0FFD1FE80FF91F6C918081918114
:1006E0000E942A028FEF9FE50197F1F700C00000FA
:1006F0002ACF842F68960FB6F894DEBF0FBECDBF09
:10070000DF91CF911F910F91FF900895CF93C82F44
:1007100082B38B7F82BB80E00E9482048C2F0E9478
:100720009C0480E00E948F04CF910895CF93C82F3E
:1007300082B3846082BB80E00E9482048C2F0E947E
:100740009C0480E00E948F04CF9108958770806B95
:100750000E9486030895CF93C82F8F700E9486034E
:100760008C2F82958F7080610E948603CF910895AF
:10077000CF93C62F0E94A6038C2F0E94AB03CF916C
:10078000089582B3886082BB80E18A95F1F700C04A
:1007900082B3877F82BB90E19A95F1F700C082B364
:1007A000886082BB8FEF9FE20197F1F700C00000E5
:1007B000089581B3846081BB81B3886081BB0E944E
:1007C000C1038EEA0E94860385ED0E94860380E8BD
:1007D0000E94860388EA0E9486038FE30E948603B4
:1007E00083ED0E94860380E00E94860380E40E94DD
:1007F000860381EA0E94860388EC0E9486038AEDC4
:100800000E94860382E10E94860381E80E9486039B
:100810008FE70E94860389ED0E94860382E20E9490
:1008200086038BED0E94860384E30E94860384EA9C
:100830000E94860386EA0E94860380E20E94860365
:1008400082E00E9486032FEF8FE791E021508040E5
:100850009040E1F700C000C08FEA0E94860308952F
:10086000CF93DF93D0E00FC08D2F0E94A60380E0CE
:100870000E94AB03C0E004C080E00E949603CF5FFB
:10088000CC23D4F7DF5FD83078F3DF91CF91089590
:100890000F931F93CF93DF93EC011AC0005210E027
:1008A00011C0802F90E0FC01EE0FFF1FEE0FFF1F25
:1008B000E80FF91FE10FF11DE059FF4F84910E94ED
:1008C00096031F5F153068F380E00E94960321961F
:1008D00008810111E3CFDF91CF911F910F9108950E
:1008E00087B3806A87BB87B3806187BB87B381602A
:1008F00087BB88B3806188BB88B3816088BB81E592
:100900008DB90895882319F0813029F0089588B3AE
:100910008F7E88BB089588B38E7F88BB0895882317
:1009200019F0813029F0089588B3806188BB08955B
:1009300088B3816088BB08958FB9779BFECF8FB154
:10094000089580B7806280BF85B7806885BF0895AD
:100950001F920F920FB60F9211242F938F939F9394
:10096000EF93FF9323B1809119028F5F803209F4D6
:1009700080E090911802891741F0E0911902F0E0AF
:10098000E65EFD4F208380931902FF91EF919F91C6
:100990008F912F910F900FBE0F901F9018951CBE36
:1009A0008FE180B988E981B986E88CBF7894089591
:1009B000159BFECF83B908952091190290911802DA
:1009C00081E0291301C080E00895E0911802F0E071
:1009D000E65EFD4F8081909118029F5F9093180210
:1009E00090911802903211F4109218020895CF934A
:1009F000C82F8A3019F48DE00E94D8048C2F0E94F1
:100A0000D80480E090E0CF9108950E94DC04882310
:100A1000E1F30E94E50490E008950F931F93CF93B4
:100A2000DF93009731F46115710519F480E090E0CF
:100A30003AC08B01EC016EE070E081E090E00E9432
:100A40007F07FC01892B91F380E883830115110551
:100A500071F01387028781E8838380913A02909135
:100A60003B02892B21F4F0933B02E0933A0220975A
:100A7000C9F0D187C08783818260838380913C02E3
:100A800090913D02892B71F4F0933D02E0933C027A
:100A900080913E0290913F02892B21F4F0933F0216
:100AA000E0933E02CF01DF91CF911F910F91089506
:100AB000A0E0B0E0EEE5F5E00C948309AE014B5FF9
:100AC0005F4FFA0161917191AF0180913C02909169
:100AD0003D020E949E05E2E00C949F090F931F9334
:100AE000CF93DF93E0913C02F0913D02238121FFFF
:100AF0001BC08C01D0E0C0E0F80181918F016091B2
:100B00003C0270913D02DB011896ED91FC91199722
:100B1000882331F00995892B79F3DFEFCFEFECCF04
:100B20008AE00995892B19F08FEF9FEF02C08D2F76
:100B30009C2FDF91CF911F910F910895ABE0B0E012
:100B4000E4EAF5E00C9473096C017B018A01FC0175
:100B500017821682838181FFCCC1CE0101963C01B0
:100B6000F6019381F70193FD859193FF81917F01B8
:100B7000882309F4BAC1853239F493FD859193FF36
:100B800081917F01853229F4B60190E00E94D90855
:100B9000E7CF912C212C312CFFE1F315D8F08B32CB
:100BA00079F038F4803279F08332A1F4232D20617A
:100BB0001DC08D3261F0803369F4232D216016C091
:100BC000832D8260382EE32DE4603E2E2AC0F32D63
:100BD000F8601DC037FC2DC020ED280F2A3040F0F2
:100BE0008E32B9F436FC81C1232D2064322E19C017
:100BF00036FE06C08AE0989E200D1124922E11C068
:100C0000EAE02E9E200D1124222EF32DF0623F2EBD
:100C100008C08C3621F4832D8068382E02C08836B7
:100C200041F4F70193FD859193FF81917F0181113B
:100C3000B3CF982F9F7D9554933028F40C5F1F4FAE
:100C40009FE399830DC0833631F0833771F083358C
:100C500009F059C021C0F801808189830E5F1F4FC0
:100C600088248394912C530113C02801F2E04F0E85
:100C7000511CF801A080B18036FE03C0692D70E0E0
:100C800002C06FEF7FEFC5010E94CE084C018201C8
:100C9000F32DFF773F2E16C0280122E0420E511C93
:100CA000F801A080B18036FE03C0692D70E002C05B
:100CB0006FEF7FEFC5010E94BC084C01F32DF06877
:100CC0003F2E820133FC1BC0822D90E088169906CE
:100CD000B0F4B60180E290E00E94D9082A94F4CFE3
:100CE000F50137FC859137FE81915F01B60190E0F7
:100CF0000E94D90821102A9421E0821A91088114B7
:100D0000910471F7E8C0843611F0893641F5F80195
:100D100037FE07C060817181828193810C5F1F4F14
:100D200008C060817181072E000C880B990B0E5F43
:100D30001F4FF32DFF763F2E97FF09C090958095AA
:100D4000709561957F4F8F4F9F4FF0683F2E2AE03F
:100D500030E0A3010E941509882E861845C085370A
:100D600031F4232D2F7EB22E2AE030E025C0932DC2
:100D7000997FB92E8F36C1F018F4883579F0B5C057
:100D8000803719F0883721F0B0C0E92FE061BE2E1E
:100D9000B4FE0DC0FB2DF460BF2E09C034FE0AC0A6
:100DA000292F2660B22E06C028E030E005C020E1E1
:100DB00030E002C020E132E0F801B7FE07C06081F8
:100DC0007181828193810C5F1F4F06C060817181A8
:100DD00080E090E00E5F1F4FA3010E941509882E4E
:100DE0008618FB2DFF773F2E36FE0DC0232D2E7F5C
:100DF000A22E891458F434FE0BC032FC09C0832D96
:100E00008E7EA82E05C0B82CA32C03C0B82C01C020
:100E1000B92CA4FE0FC0FE01E80DF11D80818033C6
:100E200021F49A2D997EA92E09C0A2FE06C0B39482
:100E3000B39404C08A2D867809F0B394A3FC11C042
:100E4000A0FE06C0B21488F4280C922C9B180EC089
:100E5000B21460F4B60180E290E00E94D908B39425
:100E6000F7CFB21418F42B1802C0982C212CA4FE32
:100E700010C0B60180E390E00E94D908A2FE17C01E
:100E8000A1FC03C088E790E002C088E590E0B601CD
:100E90000CC08A2D867859F0A1FE02C08BE201C0F9
:100EA00080E2A7FC8DE2B60190E00E94D908891487
:100EB00038F4B60180E390E00E94D9089A94F7CF05
:100EC0008A94F301E80DF11D8081B60190E00E9443
:100ED000D9088110F5CF222009F442CEB60180E274
:100EE00090E00E94D9082A94F6CFF6018681978176
:100EF00002C08FEF9FEF2B96E2E10C948F090F93C6
:100F00001F93CF93DF93869F8001879F100D969F3D
:100F1000100D1124C8010E949B07EC01009729F0D5
:100F2000A80160E070E00E94C708CE01DF91CF9178
:100F30001F910F9108950F931F93CF93DF938230EA
:100F4000910510F482E090E0E0914202F0914302BA
:100F500020E030E0A0E0B0E0309719F1408151810D
:100F60000281138148175907C8F08417950769F45F
:100F7000109731F012960C93129713961C9327C07A
:100F8000009342021093430222C02115310519F04B
:100F90004217530718F49A01BD01EF01DF01F80170
:100FA000DBCF21153105F9F0281B390B2430310531
:100FB00080F48A819B816115710521F0FB01938387
:100FC000828304C09093430280934202FE013296D2
:100FD00044C0FE01E20FF31F819391932250310927
:100FE000398328833AC02091400230914102232B5B
:100FF00041F420910201309103013093410220938A
:10100000400220910001309101012115310541F488
:101010002DB73EB74091040150910501241B350BBB
:10102000E0914002F0914102E217F307A0F42E1B79
:101030003F0B2817390778F0AC014E5F5F4F24173C
:10104000350748F04E0F5F1F509341024093400216
:101050008193919302C0E0E0F0E0CF01DF91CF9166
:101060001F910F910895CF93DF93009709F481C0EA
:10107000FC01329713821282A0914202B091430286
:10108000109781F420813181820F931F20914002BB
:10109000309141022817390751F5F0934102E0934E
:1010A000400267C0ED0120E030E0CE17DF0740F4DA
:1010B0004A815B819E0141155105F1F0EA01F5CFAE
:1010C000D383C28340815181840F951FC817D907EC
:1010D00059F488819981840F951F029691838083AA
:1010E0008A819B81938382832115310529F4F093B2
:1010F0004302E09342023DC0E901FB83EA83499148
:101100005991C40FD51FEC17FD0761F480819181BF
:10111000840F951F0296E9019983888382819381C8
:101120009B838A83E0E0F0E012968D919C91139767
:10113000009719F0FD01DC01F7CF8D919C9111977B
:101140009D012E5F3F4F820F931F209140023091EF
:1011500041022817390769F4309729F410924302A5
:101160001092420202C013821282B0934102A093F5
:101170004002DF91CF910895FC01059061507040CD
:101180000110D8F7809590958E0F9F1F0895DC0170
:1011900001C06D9341505040E0F70895FC0161504B
:1011A000704001900110D8F7809590958E0F9F1F89
:1011B00008950F931F93CF93DF93FB01238121FDAC
:1011C00003C08FEF9FEF2CC022FF16C046815781CE
:1011D000248135814217530744F4A081B1819D01D8
:1011E0002F5F3F4F318320838C93268137812F5F80
:1011F0003F4F3783268314C08B01EC01FB01008431
:10120000F185E02D0995892BE1F6D80116968D918F
:101210009C911797019617969C938E931697CE01E3
:10122000DF91CF911F910F910895FA01AA272830DD
:1012300051F1203181F1E8946F936E7F6E5F7F4FA3
:101240008F4F9F4FAF4FB1E03ED0B4E03CD0670F1F
:10125000781F891F9A1FA11D680F791F8A1F911D72
:10126000A11D6A0F711D811D911DA11D20D009F4C2
:1012700068943F912AE0269F11243019305D319304
:10128000DEF6CF010895462F4770405D4193B3E0ED
:101290000FD0C9F7F6CF462F4F70405D4A3318F094
:1012A000495D31FD4052419302D0A9F7EACFB4E045
:1012B000A6959795879577956795BA95C9F70097FD
:1012C0006105710508959B01AC010A2E069457959E
:1012D000479537952795BA95C9F7620F731F841FF5
:1012E000951FA01D08952F923F924F925F926F928B
:1012F0007F928F929F92AF92BF92CF92DF92EF92A6
:10130000FF920F931F93CF93DF93CDB7DEB7CA1B26
:10131000DB0B0FB6F894DEBF0FBECDBF09942A8851
:10132000398848885F846E847D848C849B84AA84F9
:10133000B984C884DF80EE80FD800C811B81AA8186
:10134000B981CE0FD11D0FB6F894DEBF0FBECDBF51
:08135000ED010895F894FFCFB0
:10135800000044022000D901E101EC01F201000083
:101368000000000000000000030000000001000071
:10137800000000000000000000F7010102D9010C84
:101388000200000000000000000000030000060149
:1013980000000000000000000000000043616C69CC
:1013A80062726174696E67206A6F79737469636BBE
:1013B800202D2D206C656176652069742063656E2B
:1013C80074657265642E2E2E005741524E494E4761
:1013D80020434845434B20594F55522043414C49DF
:1013E80042524154494F4E004C45465400524947D9
:1013F800485400555000444F574E004E45555452DE
:10140800414C0048656C6C6F20322066726F6D200D
:1014180041546D656761313632210053656C6563EF
:101428007465643A2025640A004F7074696F6E739E
:10143800004272696768746E65737300536F756EE6
:1014480064004261636B004D61696E204D656E7585
:101458000053746172742047616D650041626F7555
:0614680074003E002000AC
:00000001FF
